:020000040808EA
:1000000000BF00BF01480047FEE7000011000808DC
:10001000AFF3008000F006F81FB500F073F81FBDC5
:1000200010B510BDDFF80CD0FFF7F6FF00F044F874
:1000300000F008F800D8012003B4FFF7F1FF03BC7B
:1000400000F00AF810B50446AFF300802046BDE882
:100050001040FFF7F1BF704701491820ABBEFEE723
:100060002600020008B500BF002111A000F02CF806
:100070000446002C02DA642000F03EF8002CF3DB8A
:1000800015E00120009001226946204600F027F883
:100090004FF4487000F030F80020009000226946CC
:1000A000204600F01CF84FF4487000F025F8E8E70F
:1000B000424C454400000000FFF7D4FF03E04FF43A
:1000C0007A7000F019F8FAE77FB504460D46012072
:1000D000009001940295684610DF04B070BD7FB5B2
:1000E00004460D461646032000900194029503969F
:1000F000684610DF04B070BD10B5044621460120EB
:1001000011DF10BD4FF04070E1EE100A70470000A3
:0400000508080011D6
:00000001FF
