:020000040800F2
:10000000E80E00204D020008230F0008350E0008FE
:10001000210F000887040008CD110008000000002F
:10002000000000000000000000000000B70200080F
:1000300089040008000000008D0200080510000877
:1000400067020008670200086702000867020008EC
:1000500067020008670200086702000867020008DC
:1000600067020008670200086702000867020008CC
:1000700067020008670200086702000867020008BC
:1000800067020008670200086702000867020008AC
:10009000670200086702000867020008670200089C
:1000A000670200086702000867020008670200088C
:1000B000670200086702000867020008670200087C
:1000C000670200086702000867020008670200086C
:1000D00067020008C11100086702000867020008F3
:1000E000670200086702000867020008670200084C
:1000F000670200086702000867020008670200083C
:10010000670200086702000867020008670200082B
:10011000670200086702000867020008670200081B
:10012000670200086702000867020008670200080B
:1001300067020008670200086702000867020008FB
:1001400067020008670200086702000867020008EB
:1001500067020008670200086702000867020008DB
:1001600067020008670200086702000867020008CB
:10017000670200086702000867020008000000002C
:1001800067020008670200086702000867020008AB
:10019000670200086702000867020008670200089B
:1001A00000000000000000006702000800F002F8F4
:1001B00000F03CF80AA090E8000C82448344AAF1C5
:1001C0000107DA4501D100F031F8AFF2090EBAE8C3
:1001D0000F0013F0010F18BFFB1A43F0010318477B
:1001E000341C0000541C0000103A24BF78C878C1A9
:1001F000FAD8520724BF30C830C144BF04680C602D
:10020000704700000023002400250026103A28BF74
:1002100078C1FBD8520728BF30C148BF0B60704778
:100220001FB501F0E5FD1FBD10B510BD00F0F1F8E0
:100230001146FFF7F5FF01F093F800F00FF903B452
:10024000FFF7F2FF03BC00F017F9000009488047F0
:1002500009480047FEE7FEE7FEE7FEE7FEE7FEE7A8
:10026000FEE7FEE7FEE7FEE704480549054A064BC0
:1002700070470000A5100008AD010008E808002044
:10028000E80E0020E80A0020E80A002001B50E4A26
:10029000904710F1000F0DD4EFF3098121ED108A82
:1002A00021E9F00F094A9047B0E8F00FB0EC108A4E
:1002B00080F3098801BD1EF0040F0CBFEFF3088026
:1002C000EFF3098000F02EBE611A0008F119000852
:1002D00053EA020C00F069802DE9F04B4FF0000664
:1002E000002B1FBFB3FA83F503FA05F424FA05F6D1
:1002F0005E4012BF1643B2FA82F502FA05F4C5F168
:1003000020051EBF22FA05FC44EA0C04203556EAFB
:10031000044C4FEA144418BF641C4FF000084FF01F
:100320000009904271EB030C39D3002919BFB1FACF
:1003300081F701FA07F6B0FA80F700FA07F6C7F17D
:1003400020071EBF20FA07FC46EA0C062037B6FB42
:10035000F4FCA7EB0507103F07F01F0BCBF12006BD
:100360000CFA0BFB2CFA06F644BFB3460026202FEE
:10037000A4BF5E464FF0000B5BEA060C08BF4FF0CF
:10038000010B19EB0B09ABFB027C48EB0608C01B09
:1003900006FB02CC0BFB03CC71EB0C01C1E70B4657
:1003A000024641464846BDE8F08B13B54FF00000C9
:1003B0004FF00001AFF30080BDE81C4070474FF0E4
:1003C000000200B5134694469646203922BFA0E8A5
:1003D0000C50A0E80C50B1F12001BFF4F7AF0907B1
:1003E00028BFA0E80C5048BF0CC05DF804EB8900A2
:1003F00028BF40F8042B08BF704748BF20F8022BE5
:1004000011F0804F18BF00F8012B704770477047FC
:100410007047754600F02CF8AE4605006946534615
:1004200020F00700854618B020B5FFF71DFFBDE896
:1004300020404FF000064FF000074FF000084FF04B
:10044000000B21F00701AC46ACE8C009ACE8C009DC
:10045000ACE8C009ACE8C0098D46704710B5044649
:10046000AFF300802046BDE81040FFF7E8BE000073
:10047000004870478808002001491820ABBEFEE7FD
:10048000260002007047FEE7704700002DE9F84F94
:10049000DFF8F8A10022012403254FF00F090AF12B
:1004A000040BAAF1040E00BF0B6804FA02F63340F5
:1004B000B34270D10F7907F00307012F01D0022F4B
:1004C00016D187684FEA420805FA08FC27EA0C07AC
:1004D000D1F80CC00CFA08FC4CEA070CC0F808C0B4
:1004E0004768B7430E79C6F3001696403E43466010
:1004F0000E79F643B6070AD0C7684FEA420C05FAF0
:100500000CF6B7438E6806FA0CF63E43C6600E79C9
:1005100006F00306022E10D1D60800EB8608D8F8A4
:10052000206057074FEAD76C09FA0CF7BE430F69F2
:1005300007FA0CF73743C8F8207006684FEA420CF8
:1005400005FA0CF7BE430F7907F0030707FA0CF71B
:10055000374307604E6816F4403F1CD04C4E376856
:1005600047F480473760366822F0030706F4804678
:100570000096484E07EB060CDCF8086897073F0F1B
:1005800009FA07F826EA0806DFF80C81404503D18E
:100590004FF0000841E072E0DFF80081404502D1F1
:1005A0004FF0010839E0DFF8F880404502D14FF004
:1005B000020832E0DFF8EC80404502D14FF003083A
:1005C0002BE0DFF8E480404502D14FF0040824E03E
:1005D000DFF8D880404502D14FF005081DE0DFF874
:1005E000D080404502D14FF0060816E0DFF8C48005
:1005F000404502D14FF007080FE0DFF8BC804045CE
:1006000002D14FF0080808E0DFF8B080404502D181
:100610004FF0090801E04FF00A0808FA07F848EA25
:100620000608CCF80888DAF800605746D1F804C00C
:100630009E435FEACC2C00D51E433E60DBF8006091
:100640005F46D1F804C09E435FEA8C2C00D51E4360
:100650003E60DEF800607746D1F804C09E435FEA52
:100660008C3C00D51E433E60084F083F3E68D1F8E1
:1006700004C09E435FEACC3C00D51E433E60521C42
:10068000102AFFF411AFBDE8F88F0000083C0140CC
:1006900044380240003001400000024000040240A3
:1006A00000080240000C024000100240001402400A
:1006B00000180240001C02400020024000240240BA
:1006C0000AB1816170470904FBE7000001488068B6
:1006D000704700004C0000200B4810B5016841F441
:1006E00000710160016841F480610160016841F4BA
:1006F00080710160032000F06FF80F2000F006F811
:1007000000F024F8002010BD003C024070B50D4DF3
:1007100004464FF47A712878B1FBF0F00A49096871
:10072000B1FBF0F000F00AFB48B9102C07D2002210
:100730002146501E00F030F800206C6070BD012092
:1007400070BD00004C000020000000200A4808B5E1
:10075000016841F480410160006800F4804000902D
:100760000548001F016841F080510160006800F0F9
:100770008050009008BD000044380240002809DB8A
:1007800000F01F02012191404009800000F1E020AB
:10079000C0F8001170470000F0B40E4B1B680C4607
:1007A000C3F30223C3F10705042D00D90425191D45
:1007B000072901D2002300E0DB1E012606FA05F11D
:1007C000491E214099409E40761E16403143F0BCA0
:1007D00000F00DBD0CED00E0064900F007020868CE
:1007E0004FF6FF03184040EA0220034A1043086016
:1007F000704700000CED00E00000FA052DE9F0471D
:100800000E46050065D0DFF81481D8F80000F7B275
:1008100000F00F00B04207D288F80070D8F800004E
:1008200000F00F00B04254D128683D4C810712D52A
:10083000400703D5206840F4E05020602878000786
:1008400003D5206840F4604020602068A96820F04B
:10085000F000084320602878C0072DD03049686830
:100860000839012812D0022813D0032811D00968B2
:10087000890700292DDA216821F003010143216055
:10088000FFF724FF814641F2883A0EE009688903A8
:10089000EFE709688901ECE7FFF718FFA0EB090112
:1008A000514502D90320BDE8F0872068696800F04F
:1008B0000C00B0EB810FEFD1D8F80010404601F0EA
:1008C0000F01B14207D90770006800F00F00B04275
:1008D00001D00120E7E72878400705D52068E968BE
:1008E00020F4E050084320602878000706D52068EF
:1008F000296920F4604040EAC100206000F038F827
:100900002168084AC1F30311515CC84006490860D8
:1009100006480068FFF7FAFE0020C4E7003C0240EA
:1009200008380240FA1D0008000000205000002096
:100930000448054900680968044AC1F38221515CF2
:10094000C840704700000020083802400A1E000816
:100950000448054900680968044AC1F34231515C02
:10096000C840704700000020083802400A1E0008F6
:10097000154810B5006810F00C02144813D041104F
:10098000042A0FD0082A0ED10F4C241F2268236896
:1009900002F03F025B0207D52068C0F38810A0FB7D
:1009A000010106E0084610BD2168C1F38811A1FBD2
:1009B00000010023FFF78CFC2168C1F30141491CB1
:1009C0004900B0FBF1F010BD083802400024F400EB
:1009D0002DE9F84F04006ED02078DFF84C93C00763
:1009E000A9F104054AD009F104000168C1F38101AD
:1009F000012908D00068C0F3810002280AD1D9F883
:100A00000000400206D52868800337D560680028BA
:100A1000E1D033E06068B0F5803F10D0B0F5A02F92
:100A2000286810D020F480302860286820F48020C6
:100A300028606068A8B1FFF749FE06460DE0286807
:100A400040F48030F4E740F480202860F7E700BFEE
:100A5000FFF73CFE801B642873D828688003F7D515
:100A60000CE0FFF733FE064605E000BFFFF72EFE61
:100A7000801B6428F0D828688003F7D42078DFF83A
:100A8000AC8280074FF0000A3ED5A748001D0168E0
:100A900011F00C0F08D00068C0F3810002280BD1C0
:100AA000D9F80000400207D42868800716D5E0680E
:100AB000012800D112E033E1E068B8B10120C8F8A4
:100AC0000000FFF703FE064605E000BFFFF7FEFD4E
:100AD000801B0228C0D828688007F7D528682169BC
:100AE00020F0F80040EAC10028600DE0C8F800A03E
:100AF000FFF7ECFD064604E0FFF7E8FD801B022847
:100B00001FD828688007F7D42078000722D5864FA1
:100B100087486169703771B101210160FFF7D6FD27
:100B2000064604E0FFF7D2FD801B022809D838688A
:100B30008007F7D50EE0C0F800A0FFF7C7FD064616
:100B400005E082E0FFF7C2FD801B02287DD83868EF
:100B50008007F7D42078400768D5DFF8CCB10027AC
:100B60000BF13C0BDBF80000C0000BD4DBF80010ED
:100B700041F08051CBF80010DBF80000012700F0B5
:100B8000805000906B4E3068C00510D4306840F43F
:100B900080703060FFF79AFD009005E0FFF796FD4A
:100BA0000099401A022850D83068C005F6D55E4E2C
:100BB000A0686C3601280FD00528306810D020F0CE
:100BC00001003060306820F004003060A068B8B1E7
:100BD000FFF77CFD00900FE0306840F00100F4E783
:100BE00040F004003060F7E7FFF770FD0099411A0C
:100BF00041F28830814266D830688007F4D50EE033
:100C0000FFF764FD009007E0FFF760FD0099411ACF
:100C100041F28830814256D830688007F4D42FB131
:100C2000DBF8001021F08051CBF80010A069C8B3A8
:100C30003D49091D0968C1F3810102294AD00228F2
:100C4000504607D0C8F8600000E03CE0FFF73EFDEA
:100C500004463BE04746C8F86000FFF737FD06460C
:100C600005E000BFFFF732FD801B02282BD8286863
:100C70008001F7D4D4E907010843A16A2E4A490844
:100C800002EB0141626A41EA8211084394F82C1098
:100C900040EA0161C9F8001001203866FFF716FD2F
:100CA000044606E03EE000BFFFF710FD001B0228EF
:100CB00009D828688001F7D534E000BFFFF706FDAA
:100CC000001B022802D90320BDE8F88F28688001A4
:100CD000F4D427E00128F7D0D9F80000E26900F445
:100CE000800191421CD1226A00F03F01914217D14C
:100CF00047F6C071626A0140B1EB821F10D1A26A4F
:100D00004FF0FF3300F4403103EB5202B1EB024FDE
:100D100006D194F82C1000F07060B0EB016F01D098
:100D20000120D1E70020CFE704380240000047420D
:100D3000800E4742007000400000FFFF10B5401ECB
:100D4000B0F1807F01D3012010BD4FF0E02460613D
:100D50000F21601700F04BFA0020A06107202061EE
:100D6000002010BD70B5040004D094F841000025A7
:100D700010B106E0012070BD84F84050204600F01C
:100D800023F8242084F841002068C16821F4005130
:100D9000C160204600F08EF92068016921F490417D
:100DA00001612068416921F02A0141612068C16820
:100DB00041F40051C1606564202084F8410084F84A
:100DC00042006563002070BD10B586B00446142152
:100DD0006846FFF7F4FA14492068884221D1134885
:100DE0000021026842F010020260006800F010006A
:100DF00005900E481438026842F001020260006853
:100E000000F0010005904FF4C06000900220CDE991
:100E10000101032003900720049069460448FFF76E
:100E200035FB06B010BD0000001001404438024000
:100E30000000024000F0A2BC2DE9F04186B0142170
:100E40006846FFF7BCFA32480024016841F004010B
:100E50000160016801F004010591016841F0800121
:100E60000160016801F080010591016841F0100105
:100E70000160016801F010010591016841F0020173
:100E80000160016801F002010591016841F008016B
:100E90000160016801F008010591016841F001015C
:100EA000016000681B4F00F001000590002207213F
:100EB0003846FFF705FCDFF860804FF4004500225C
:100EC00029464046FFF7FCFBA810CDE9000469461F
:100ED00038460294FFF7DAFA072000900126CDE9A0
:100EE0000164694638460394FFF7D0FA0095CDE9CE
:100EF0000164694640460394FFF7C8FACDE90054FF
:100F0000694606480294FFF7C1FA06B0BDE8F081D1
:100F1000303802400008024000100240000C02403D
:100F2000FEE7FEE710B50446806910F8020C1028B1
:100F300043D0112826D0122818D0132821D1206898
:100F40000168012908D002290AD0032919D1406873
:100F5000BDE8104000F086BB406800F04DFB0FE09C
:100F600081684068BDE8104000F096BB2068012809
:100F700004D0022805D12248408801E000F012FC8C
:100F8000206010BD2068012809D002280CD0032859
:100F90000ED00428F5D1BDE8104000F02BBE6068EB
:100FA000BDE8104000F03EBEBDE8104000F05CBE61
:100FB0006068BDE8104000F0E7BD206801680629C0
:100FC0001CD2DFE801F01B03080D1217816840688E
:100FD00000F060FAD4E7001D07C800F089FACFE7F7
:100FE000001D07C800F0E6FACAE7001D07C800F0B8
:100FF00017FAC5E7406800F0EBF9C1E70020BFE74A
:101000000400002000F0D4BB30B593B03021684616
:10101000FFF7D5F914210CA8FFF7D1F91F480025D7
:10102000016841F080510160006800F0805011902B
:101030001B48016841F4404101600068022400F44B
:1010400040401190092000904FF4A0200190012011
:10105000CDE9050480050790082008904FF4A8709A
:10106000CDE9090407200B906846FFF7B1FC08B1F1
:1010700072B6FEE70CA90F2081E831004FF4A050B2
:101080000F904FF48050109005210CA8FFF7B6FB8D
:10109000002801D072B6FEE713B030BD40380240E0
:1010A000007000400248016841F47001016070471F
:1010B00088ED00E070B5044600680169E26821F43B
:1010C0004051114301612169A068E26908436169E7
:1010D000114308432168CA6849F20C639A430243EA
:1010E000CA6020684169A26921F4407111434161DD
:1010F00031492068884202D03049884202D1FFF746
:1011000027FC01E0FFF714FCE269002319216425A4
:101110003226B2F5004F626828D0A0FB0101930F80
:101120009200FFF7D5F80146B0FBF5F06FF018021A
:10113000504301EB800006EB0010B0FBF5F000F02F
:10114000F002B1FBF5F002EB0012B1FBF5F06FF02D
:101150001803584301EB800006EB0010B0FBF5F0DC
:1011600000F00F0021681044886070BDA0FB0101F1
:1011700092185B41FFF7ACF80146B0FBF5F00201B5
:10118000B1FBF5F06FF01803584301EB800006EB5C
:10119000C000B0FBF5F000F0F80002EB4002B1FB3C
:1011A000F5F0584301EB800006EBC000B0FBF5F012
:1011B00000F00700D6E700000010014000140140D5
:1011C000014800F024B800002C070020FEE70907C2
:1011D000090E002804DB00F1E02080F800147047BD
:1011E00000F00F0000F1E02080F8141D704709079F
:1011F000090E002804DB00F1E02080F8001470479D
:1012000000F00F0000F1E02080F8141D704738B5A1
:101210000446C068016811F0280F08D040688DF8B6
:10122000000001226946A06800F08CFA38BD617C9C
:1012300021B1C16821F04001C16038BD0122694679
:10124000606800F060FA002804DDE1689DF80000A5
:10125000486038BDE068C16821F08001C1600120AC
:101260006074E068C16841F04001E5E710B510B175
:101270000168082902D04FF0FF3010BD0021017134
:10128000012211460248FFF71BFA002010BD0000A2
:10129000000802400020704730B5124C87B020791A
:1012A000E0B901201049207160710B68002243F001
:1012B00004030B600968CDE9020201F00401059105
:1012C0000A4D0190009069462846FFF7DFF800229A
:1012D00001212846FFF7F4F90820206007B00148F3
:1012E00030BD0000440000203038024000080240B9
:1012F0004FF0FF3130B10268082A03D102790AB1F8
:10130000407970470846704710B5011E4FF0FF3313
:1013100022D0086808281FD10879E8B10F48002AB0
:1013200003DD4FF001024A710AE003D14FF00002E1
:101330004A710FE04A795AB14FF000024A714AB13E
:101340004FF000024FF00101FFF7BAF9002010BD85
:101350000122F3E70122F5E7184610BD000802401C
:10136000FFF7BAF9FFF750FEFFF766FD00F0CCFA81
:1013700000F010F800F0E6FA00F05CF900F072F806
:1013800000F00EF800F02CFA4FF4FA7000F008FBB1
:1013900000F0E0FB014900200860704718000020C1
:1013A00010B50022054906A000F0C4F8BDE81040C1
:1013B0000022054905A000F0BDB800001C00002077
:1013C000434F4D3100000000300000204C454400E8
:1013D00070B51222C0F313044FF0FF31B2EB105F6F
:1013E00003D10D480068844201DB084670BD0B48FC
:1013F0000A4D00EB041000268068803538B1416842
:1014000029B155F82400884745F8246070BD45F897
:101410002460002070BD000014000020E8010020BE
:1014200030B41225C0F313034FF0FF34B5EB105F57
:1014300011D10A48006883420DDA094850F82300A8
:1014400048B1074D803D05EB03139B681BB11B6939
:101450000BB130BC1847204630BC70471400002048
:101460006802002010B5094B0020014603F18004FA
:1014700003EB001211709160D16044F82010401C01
:101480000828F5DB0248016010BD0000E8010020DB
:10149000140000202DE9F041884605460024124E34
:1014A000124F1BE0002006EB04112A5C0B5C9342F8
:1014B00013D112B1401C0828F7DB886868B10268B4
:1014C0005AB1C8684146904738B10749803141F860
:1014D000240044F09070BDE8F081641C38688442B8
:1014E000E0DB4FF0FF30F6E7E801002014000020B9
:1014F00030B41225C0F313034FF0FF34B5EB105F87
:1015000011D10A48006883420DDA094850F82300D7
:1015100048B1074D803D05EB03139B681BB19B68E9
:101520000BB130BC1847204630BC70471400002077
:10153000680200202DE9F04792466FF0010C70B36D
:1015400069B31A4B1A68082A03DB4FF0FF30BDE875
:10155000F08700259946164C08E000BF04EB0516FD
:10156000C75C16F80380B8451AD06D1C95424FF041
:101570000003F3DB4D4604EB0216C75CF754C75C6F
:1015800017B15B1C072BF8DB04EB02100023C371BF
:10159000C0E9021A521C1846C9F80020D7E703E038
:1015A00017B15B1C082BDBDB6046D0E71400002082
:1015B000E801002030B41225C0F313034FF0FF34CC
:1015C000B5EB105F11D10A48006883420DDA094873
:1015D00050F8230048B1074D803D05EB03139B688D
:1015E0001BB1DB680BB130BC1847204630BC7047DC
:1015F000140000206802002010B50D49002200BF31
:1016000001EB42131C782CB1521C0A2AF8DB4FF074
:10161000FF3010BD0021445C5C54445C14B1491C93
:101620000F29F8DB0020D87342F0887010BD00004D
:101630008802002030B50020094C0146002204EB4E
:1016400040139954521C082AFBDB002203EB82054D
:10165000521C2961042AF9DB401C0A28EEDB30BD4C
:101660008802002030B5C0F313010A2910DA0020E7
:10167000084A0446012502EB411200BF02EB800339
:10168000196911B181F864501C61401C0428F5DB14
:1016900030BD00008802002070B5C0F313040D4671
:1016A0004FF0FF360A2C14DA00F08EFA020010D048
:1016B0000D49002001EB441101EB80031B6953B17C
:1016C000401C0428F8DB002D09DD284600F0AAFAAA
:1016D00007E0304670BD01EB80000261F3E700F0E7
:1016E000C3FA002070BD000088020020082908DD30
:1016F0004FF2F01202800022828042800839C180BD
:10170000704700207047F0B50388A3F57144F03CA2
:1017100001D00020F0BD002300F108040EE0858810
:101720004688B5420CD02D5DCD548588C6886D1C89
:10173000B5FBF6F706FB175585805B1C9342EEDB85
:101740001846F0BDF0B50388A3F57144F03C01D014
:101750000020F0BD002300F108040BE04688CD5CBA
:1017600035554588C6886D1CB5FBF6F706FB175541
:1017700045805B1C9342F1DB1846F0BD074880684A
:10178000002809DD064AC0EB401002EB8000002172
:1017900000F8181C00F020B9FEE70000040000204B
:1017A000C80300200148406840087047040000203A
:1017B00010B50A4C6068401C606000F00DF9A0682C
:1017C000002809DD2088401C80B22080A18889057E
:1017D00002D160800020208010BD000004000020A5
:1017E00070B50E480068002817D000F097F80B4A33
:1017F0000021121D1160131D1C1D0846251D1860B7
:1018000021602960401C0828F9DB0520106000F0E9
:1018100088F8BDE8704000F0B1B870BD90ED00E010
:101820002DE9F047274CDFF894A0DFF894901F27AC
:1018300024683E46002C3FD00425012405F1010C0C
:1018400004FA0CFC8C4501D3EFB202E06D1C202D94
:10185000F4DB04214D1C04FA05F59D4201D3CEB200
:1018600002E0491C2029F5DB7B1C04FA03F1491E28
:1018700020EA0108711C04FA01F0401E22EA00056A
:1018800000F04CF80F490020091D08600B1D18607E
:101890001A1DC2F80080101D49EA470707601C6046
:1018A00015604AEA460202600520086000F039F837
:1018B000BDE8F04700F062B8BDE8F087010006130C
:1018C0000100020690ED00E02DE9F04105460024FC
:1018D00000F024F80B4800210160021D131D1E1D9D
:1018E000146005EB84014F6A1F60496C3160641C11
:1018F000042CF5DB0521016000F013F8BDE8F04190
:1019000000F03CB894ED00E00248016841F4700139
:101910000160704788ED00E072B67047BFF35F8FDB
:101920007047BFF34F8F704762B67047EFF3148074
:1019300070474FF0E020406970474FF0E020806929
:10194000704700000B4910B508684FF6FF021040C1
:10195000094A10430860FF216FF00100FFF737FCD0
:101960000021481EFFF733FC0121BDE81040881F0D
:10197000FFF72DBC0CED00E00000FA05BFF36F8F00
:10198000704780F31488BFF36F8F704713460A4681
:101990004FF48051FFF744BF80F30988704700007F
:1019A0000B4910B509680B4AB1FBF2F14143C80875
:1019B000401EB0F1807F0AD24FF0E02460610F2119
:1019C0006017FFF704FC0020A0610720206110BD14
:1019D0000000002040420F0002494FF08050086094
:1019E0007047000004ED00E020BF704730BF704733
:1019F00070B5194A194C4FF0000593685E1E01D26C
:101A0000D16014E0C6EB461304EB83034EF6015697
:101A10009967196A0968B14202D083F8645006E0F8
:101A200093F86410032902D1012183F864109060B7
:101A300000280EDD401EC0EB401004EB800451680E
:101A40000320616784F864002046FFF73DFFA06F24
:101A500070BD9560D06870BD04000020C8030020F0
:101A600000B500F017F80949401C8A6890420BD174
:101A7000002807DD064AC0EB401002EB80004968F1
:101A800040F8081C4FF0FF3000BD000004000020AB
:101A9000C80300202DE9F0472B49FF244FF0FF3306
:101AA0004D682B49184600224FF0010ADFF89C9040
:101AB0000E6845E0C2EB421709EB87010F6FA5EBFB
:101AC000070891F86470032F26D017B30D678F6E47
:101AD000B7EB08078F6609D5D1F814C067448F6645
:101AE00091F86470022F01D181F864A0CF6E002FAD
:101AF00009DDA7EB0807CF66002F91F864708C46CC
:101B000010DC022F06D091F86470012F04D0032F4F
:101B100002D013E081F864A00F7EA74208D23C46B1
:101B20004B6F0AE057B14FF002078CF8647005E084
:101B300004D1496F994201D20B461046521CD2B2D1
:101B4000B242B7DBBDE8F08704000020C8030020E4
:101B5000180000200948FFF71FFF4FF4C87208491A
:101B60000848FFF713FFFFF7E1FE40F00300FFF71F
:101B700008FFFFF703FFFFF739FFFEE7E40100204E
:101B800058000020551B00082DE9F0410546FFF7DD
:101B9000D4FE07460A480B490068B0FBF1F46C43D9
:101BA0000AE000BFFFF7C9FE0646BD1B02D5FFF7DE
:101BB000C0FE05443746641B002CF3DCBDE8F08111
:101BC0000000002040420F0010B50024FFF7A4FEE3
:101BD00006488068002805DD0549C0EB401001EB90
:101BE00080047C3CFFF7A0FE204610BD04000020CE
:101BF000C8030020094810B58068002807DD084A9E
:101C0000C0EB401002EB8000002100F8181CFFF729
:101C1000E3FEBDE81040FFF7E7BE0000040000202F
:101C2000C803002010B50446FFF776FE0C48806814
:101C3000002811DD0B49C0EB401001EB80014FF48F
:101C40007A7044434010B4FBF0F041F8100C0220CD
:101C500001F8180CFFF7C0FEBDE81040FFF764BEA6
:101C600004000020C803002010B5FFF755FE094806
:101C70008068002809DD0849C0EB401001EB8000B6
:101C8000022100F8181CFFF7A7FEBDE81040FFF77F
:101C90004BBE000004000020C803002010B1016802
:101CA000142902D04FF0FF30704700210174C06842
:101CB000C16821F40051C1600020704700207047C6
:101CC0002DE9F04186B0884618B1002006B0BDE885
:101CD000F081304D0026287C08B12846F6E72D4FCC
:101CE00001242C7414376C7438468021FFF7FEFCF5
:101CF000686007F180008021FFF7F8FC264FC5E9F6
:101D000002072648016841F001010160006800F007
:101D10000100059021481430016841F01001016074
:101D2000006801A900F010000590022081E8510030
:101D30000720049060021A4C009069462046FEF786
:101D4000A5FB20150090694602962046FEF79EFBF3
:101D5000144C0C202760C4E90186E660C4E90460E5
:101D6000A6612046E661FEF7FDFF0A221146252006
:101D7000FEF712FD2520FEF701FD2068C16841F045
:101D80002001C1602068C16821F08001C160142079
:101D90002860A2E72C0700200010014030380240E4
:101DA000000002404008002010B10368142B02D04C
:101DB0004FF0FF3070478068FFF7A5BC10B5041ED8
:101DC00002D02068142802D04FF0FF3010BD207CD4
:101DD0000028FBD06068FFF7B5FC617C0029F5D0D6
:101DE00000216174E168CA6842F08002CA6010BDD7
:101DF0004FF04070E1EE100A704700000000000054
:101E000000000102030406070809000000000102A7
:101E100003040000341E00080000002058000000E9
:101E2000E80100088C1E000858000020900E0000F9
:101E3000040200080024F40000000000000000007C
:101E40000000000000000000000000000000000092
:101E5000C11C00089D1C0008A91D0008BD1D00082C
:101E6000BD1C0008991200086D120008F11200084C
:101E7000091300089512000800000000000000008F
:0C1E800001000000100000000000000045
:04000005080001AD41
:00000001FF
