:020000040800F2
:10000000184600204D02000877130008A9110008C7
:100010007513000893040008211700080000000071
:10002000000000000000000000000000C302000803
:1000300095040008000000008D0200085D1500080E
:1000400067020008670200086702000867020008EC
:1000500067020008670200086702000867020008DC
:1000600067020008670200086702000867020008CC
:1000700067020008670200086702000867020008BC
:1000800067020008670200086702000867020008AC
:10009000670200086702000867020008670200089C
:1000A000670200086702000867020008670200088C
:1000B000670200086702000867020008670200087C
:1000C000670200086702000867020008670200086C
:1000D0006702000815170008670200086702000899
:1000E000670200086702000867020008670200084C
:1000F000670200086702000867020008670200083C
:10010000670200086702000867020008670200082B
:10011000670200086702000867020008670200081B
:10012000670200086702000867020008670200080B
:1001300067020008670200086702000867020008FB
:1001400067020008670200086702000867020008EB
:1001500067020008670200086702000867020008DB
:1001600067020008670200086702000867020008CB
:10017000670200086702000867020008000000002C
:1001800067020008670200086702000867020008AB
:10019000670200086702000867020008670200089B
:1001A00000000000000000006702000800F002F8F4
:1001B00000F03CF80AA090E8000C82448344AAF1C5
:1001C0000107DA4501D100F031F8AFF2090EBAE8C3
:1001D0000F0013F0010F18BFFB1A43F0010318477B
:1001E00098270000B8270000103A24BF78C878C1CB
:1001F000FAD8520724BF30C830C144BF04680C602D
:10020000704700000023002400250026103A28BF74
:1002100078C1FBD8520728BF30C148BF0B60704778
:100220001FB502F095FB1FBD10B510BD00F0F7F82B
:100230001146FFF7F5FF01F0BDFB00F015F903B41F
:10024000FFF7F2FF03BC00F01DF9000009488047EA
:1002500009480047FEE7FEE7FEE7FEE7FEE7FEE7A8
:10026000FEE7FEE7FEE7FEE704480549054A064BC0
:1002700070470000F9150008AD0100081840002083
:1002800018460020184200201842002001B5114AEB
:10029000904710F1000F13D4EFF309811EF0100FF7
:1002A00008BF21ED108A21E9F04F0B4A9047B0E8D2
:1002B000F04F1EF0100F08BFB0EC108A80F30988D1
:1002C00001BD1EF0040F0CBFEFF30880EFF30980AF
:1002D00001F08CB8B52300085123000853EA020C42
:1002E00000F069802DE9F04B4FF00006002B1FBF96
:1002F000B3FA83F503FA05F424FA05F65E4012BF5B
:100300001643B2FA82F502FA05F4C5F120051EBFC4
:1003100022FA05FC44EA0C04203556EA044C4FEA64
:10032000144418BF641C4FF000084FF000099042BD
:1003300071EB030C39D3002919BFB1FA81F701FA27
:1003400007F6B0FA80F700FA07F6C7F120071EBFDC
:1003500020FA07FC46EA0C062037B6FBF4FCA7EBB4
:100360000507103F07F01F0BCBF120060CFA0BFB23
:100370002CFA06F644BFB3460026202FA4BF5E46E3
:100380004FF0000B5BEA060C08BF4FF0010B19EBB6
:100390000B09ABFB027C48EB0608C01B06FB02CC3A
:1003A0000BFB03CC71EB0C01C1E70B460246414647
:1003B0004846BDE8F08B13B54FF000004FF0000148
:1003C000AFF30080BDE81C4070474FF0000200B55D
:1003D000134694469646203922BFA0E80C50A0E868
:1003E0000C50B1F12001BFF4F7AF090728BFA0E816
:1003F0000C5048BF0CC05DF804EB890028BF40F8E2
:10040000042B08BF704748BF20F8022B11F0804F23
:1004100018BF00F8012B704770477047704775464A
:1004200000F02CF8AE4605006946534620F0070060
:10043000854618B020B5FFF717FFBDE820404FF004
:1004400000064FF000074FF000084FF0000B21F0BE
:100450000701AC46ACE8C009ACE8C009ACE8C0098B
:10046000ACE8C0098D46704710B50446AFF3008074
:100470002046BDE81040FFF7E2BE0000004870478C
:10048000B43F002001491820ABBEFEE72600020061
:100490007047FEE7704772B6FEE700002DE9F84F9F
:1004A000DFF8F8A10022012403254FF00F090AF11B
:1004B000040BAAF1040E00BF0B6804FA02F63340E5
:1004C000B34270D10F7907F00307012F01D0022F3B
:1004D00016D187684FEA420805FA08FC27EA0C079C
:1004E000D1F80CC00CFA08FC4CEA070CC0F808C0A4
:1004F0004768B7430E79C6F3001696403E43466000
:100500000E79F643B6070AD0C7684FEA420C05FADF
:100510000CF6B7438E6806FA0CF63E43C6600E79B9
:1005200006F00306022E10D1D60800EB8608D8F894
:10053000206057074FEAD76C09FA0CF7BE430F69E2
:1005400007FA0CF73743C8F8207006684FEA420CE8
:1005500005FA0CF7BE430F7907F0030707FA0CF70B
:10056000374307604E6816F4403F1CD04C4E376846
:1005700047F480473760366822F0030706F4804668
:100580000096484E07EB060CDCF8086897073F0F0B
:1005900009FA07F826EA0806DFF80C81404503D17E
:1005A0004FF0000841E072E0DFF80081404502D1E1
:1005B0004FF0010839E0DFF8F880404502D14FF0F4
:1005C000020832E0DFF8EC80404502D14FF003082A
:1005D0002BE0DFF8E480404502D14FF0040824E02E
:1005E000DFF8D880404502D14FF005081DE0DFF864
:1005F000D080404502D14FF0060816E0DFF8C480F5
:10060000404502D14FF007080FE0DFF8BC804045BD
:1006100002D14FF0080808E0DFF8B080404502D171
:100620004FF0090801E04FF00A0808FA07F848EA15
:100630000608CCF80888DAF800605746D1F804C0FC
:100640009E435FEACC2C00D51E433E60DBF8006081
:100650005F46D1F804C09E435FEA8C2C00D51E4350
:100660003E60DEF800607746D1F804C09E435FEA42
:100670008C3C00D51E433E60084F083F3E68D1F8D1
:1006800004C09E435FEACC3C00D51E433E60521C32
:10069000102AFFF411AFBDE8F88F0000083C0140BC
:1006A0004438024000300140000002400004024093
:1006B00000080240000C02400010024000140240FA
:1006C00000180240001C02400020024000240240AA
:1006D0000AB1816170470904FBE7000001488068A6
:1006E00070470000480000200B4810B5016841F435
:1006F00000710160016841F480610160016841F4AA
:1007000080710160032000F06FF80F2000F006F800
:1007100000F024F8002010BD003C024070B50D4DE3
:1007200004464FF47A712878B1FBF0F00A49096861
:10073000B1FBF0F000F0BCFC48B9102C07D200224D
:100740002146501E00F030F800206C6070BD012082
:1007500070BD000048000020000000200A4808B5D5
:10076000016841F480410160006800F4804000901D
:100770000548001F016841F080510160006800F0E9
:100780008050009008BD000044380240002809DB7A
:1007900000F01F02012191404009800000F1E0209B
:1007A000C0F8001170470000F0B40E4B1B680C46F7
:1007B000C3F30223C3F10705042D00D90425191D35
:1007C000072901D2002300E0DB1E012606FA05F10D
:1007D000491E214099409E40761E16403143F0BC90
:1007E00000F0BFBF0CED00E0064900F0070208680A
:1007F0004FF6FF03184040EA0220034A1043086006
:10080000704700000CED00E00000FA052DE9F84FFC
:1008100004460068DFF824A2894F8A4DC1074FF0D3
:1008200001084FF0000603D1810701D4400648D5E6
:10083000CAF86860FFF752FF814605E0FFF74EFFF8
:10084000A0EB090002287DD828680001F6D42078A2
:10085000C1077D4805D06168227A890141EA0271A9
:1008600001602178890711D501686268237B9201B4
:10087000C1F3027142EA036242EA01710160396820
:10088000E26921F01F01521E1143396021784906A7
:1008900008D56168227B890141EA0261227A41EA36
:1008A00002710160CAF86880FFF718FF814605E011
:1008B000FFF714FFA0EB0900022843D828680001C5
:1008C000F6D52068410701D400074ED5CAF87060FC
:1008D000FFF704FF814605E0FFF700FFA0EB0900EA
:1008E00002282FD82868C0438000F5D5207841071A
:1008F000564814D501682269237D9201C1F3027123
:1009000042EA036242EA017101603968226A6FF0CB
:10091000FF0321F4F85103EB0222114339602178DF
:10092000090712D501682269C1F30361920142EA05
:100930000161227E41EA027101603868616A20F437
:10094000403000E051E008433860CAF87080FFF79B
:10095000C5FE074605E000BFFFF7C0FEC01B02282A
:1009600043D82868C0438000F6D42078800653D549
:1009700034484030016841F0805101600068344DD6
:1009800000F080500090286840F480702860FFF7E5
:10099000A5FE074605E000BFFFF7A0FEC01B02282A
:1009A00023D82868C005F7D5274D143D286810F4D2
:1009B000407020D0218D01F4407181421BD0286805
:1009C00020F440712348C0F8008006602960286840
:1009D000C00710D0FFF782FE064641F2883707E0D5
:1009E000FFF77CFE801BB84202D90320BDE8F88FD8
:1009F00028688007F4D5A16A1248C1F301220830A3
:100A0000032A13D0016821F4F81101602868218DB0
:100A1000C1F30B01084328602078C00604D50E49B5
:100A200094F82C00C1F8E0010020DFE702680B4BCE
:100A300022F4F81219400A430260E7E70000474237
:100A40008C38024000380240843802408838024026
:100A500000700040400E474200104742FFFCFF0F6D
:100A60002DE9F0470E46050065D0DFF81481D8F86F
:100A70000000F7B200F00F00B04207D288F8007013
:100A8000D8F8000000F00F00B04254D128683D4C67
:100A9000810712D5400703D5206840F4E05020605C
:100AA0002878000703D5206840F460402060206863
:100AB000A96820F0F000084320602878C0072DD0F6
:100AC000304968680839012812D0022813D0032859
:100AD00011D00968890700292DDA216821F0030166
:100AE00001432160FFF7FAFD814641F2883A0EE0AA
:100AF00009688903EFE709688901ECE7FFF7EEFD74
:100B0000A0EB0901514502D90320BDE8F087206818
:100B1000696800F00C00B0EB810FEFD1D8F800103D
:100B2000404601F00F01B14207D90770006800F09C
:100B30000F00B04201D00120E7E72878400705D533
:100B40002068E96820F4E050084320602878000716
:100B500006D52068296920F4604040EAC100206081
:100B600000F038F82168084AC1F30311515CC8400D
:100B70000649086006480068FFF7D0FD0020C4E77A
:100B8000003C0240083802405A29000800000020BA
:100B90004C0000200448054900680968044AC1F374
:100BA0008221515CC8407047000000200838024094
:100BB0006A2900080448054900680968044AC1F325
:100BC0004231515CC84070470000002008380240A4
:100BD0006A290008154810B5006810F00C02144886
:100BE00013D04110042A0FD0082A0ED10F4C241F15
:100BF0002268236802F03F025B0207D52068C0F339
:100C00008810A0FB010106E0084610BD2168C1F371
:100C10008811A1FB00010023FFF760FB2168C1F3ED
:100C20000141491C4900B0FBF1F010BD08380240F9
:100C30000024F4002DE9F84F04006ED02078DFF88E
:100C40004C93C007A9F104054AD009F104000168DA
:100C5000C1F38101012908D00068C0F38100022896
:100C60000AD1D9F80000400206D52868800337D59C
:100C700060680028E1D033E06068B0F5803F10D0B4
:100C8000B0F5A02F286810D020F4803028602868A4
:100C900020F4802028606068A8B1FFF71FFD064699
:100CA0000DE0286840F48030F4E740F480202860AC
:100CB000F7E700BFFFF712FD801B642873D8286890
:100CC0008003F7D50CE0FFF709FD064605E000BFFD
:100CD000FFF704FD801B6428F0D828688003F7D450
:100CE0002078DFF8AC8280074FF0000A3ED5A74895
:100CF000001D016811F00C0F08D00068C0F38100DE
:100D000002280BD1D9F80000400207D428688007D8
:100D100016D5E068012800D112E033E1E068B8B1EF
:100D20000120C8F80000FFF7D9FC064605E000BF27
:100D3000FFF7D4FC801B0228C0D828688007F7D5AD
:100D40002868216920F0F80040EAC10028600DE021
:100D5000C8F800A0FFF7C2FC064604E0FFF7BEFC9F
:100D6000801B02281FD828688007F7D42078000746
:100D700022D5864F87486169703771B101210160C2
:100D8000FFF7ACFC064604E0FFF7A8FC801B022836
:100D900009D838688007F7D50EE0C0F800A0FFF743
:100DA0009DFC064605E082E0FFF798FC801B0228C8
:100DB0007DD838688007F7D42078400768D5DFF8F9
:100DC000CCB100270BF13C0BDBF80000C0000BD4CA
:100DD000DBF8001041F08051CBF80010DBF8000088
:100DE000012700F0805000906B4E3068C00510D491
:100DF000306840F480703060FFF770FC009005E0D0
:100E0000FFF76CFC0099401A022850D83068C005E2
:100E1000F6D55E4EA0686C3601280FD005283068E4
:100E200010D020F001003060306820F00400306005
:100E3000A068B8B1FFF752FC00900FE0306840F0B6
:100E40000100F4E740F004003060F7E7FFF746FCEC
:100E50000099411A41F28830814266D83068800793
:100E6000F4D50EE0FFF73AFC009007E0FFF736FC00
:100E70000099411A41F28830814256D83068800783
:100E8000F4D42FB1DBF8001021F08051CBF8001022
:100E9000A069C8B33D49091D0968C1F38101022950
:100EA0004AD00228504607D0C8F8600000E03CE075
:100EB000FFF714FC04463BE04746C8F86000FFF724
:100EC0000DFC064605E000BFFFF708FC801B02286A
:100ED0002BD828688001F7D4D4E907010843A16A18
:100EE0002E4A490802EB0141626A41EA8211084335
:100EF00094F82C1040EA0161C9F80010012038660E
:100F0000FFF7ECFB044606E03EE000BFFFF7E6FB20
:100F1000001B022809D828688001F7D534E000BFFB
:100F2000FFF7DCFB001B022802D90320BDE8F88F85
:100F300028688001F4D427E00128F7D0D9F8000010
:100F4000E26900F4800191421CD1226A00F03F0165
:100F5000914217D147F6C071626A0140B1EB821F1E
:100F600010D1A26A4FF0FF3300F4403103EB52027C
:100F7000B1EB024F06D194F82C1000F07060B0EB8A
:100F8000016F01D00120D1E70020CFE704380240F3
:100F900000004742800E4742007000400000FFFF03
:100FA00010B5040002D0607F10B106E0012010BD32
:100FB00000202077204600F041F80220607720686A
:100FC000C168C943C90632D5CA214162216853208C
:100FD0004862204600F0D0F920BB20688168164A9C
:100FE000114081602168886862681043D4E9042355
:100FF0001A43104388602168E0680861206801692D
:10100000228941EA02410161204600F0D9F948B93C
:1010100021680A6C22F480220A6421680A6CA369A0
:101020001A430A642268FF21516208B110BD0020F2
:101030000121617710BD0000BFFF8FFF10B58CB09C
:10104000044630216846FFF7C0F909492068884204
:101050000CD12020009000010A906846FFF7D6FBD3
:1010600008B1FFF718FA0349012008600CB010BD61
:10107000002800403C0E474270B504460B482168EA
:10108000C860FFF72BFB05464FF47A7607E000BFF8
:10109000FFF724FB401BB04201D9032070BD20683C
:1010A000C0688006F4D5002070BD00005F7F01009D
:1010B00010B5401EB0F1807F01D3012010BD4FF06C
:1010C000E02460610F21601700F04BFB0020A0615D
:1010D00007202061002010BD70B5040004D094F8F2
:1010E0004100002510B106E0012070BD84F8405099
:1010F000204600F023F8242084F841002068C168CD
:1011000021F40051C160204600F07EFA2068016998
:1011100021F4904101612068416921F02A01416177
:101120002068C16841F40051C1606564202084F8E2
:10113000410084F842006563002070BD10B586B0A0
:10114000044614216846FFF740F914492068884294
:1011500021D113480021026842F0100202600068A9
:1011600000F0100005900E481438026842F00102A9
:101170000260006800F0010005904FF4C06000902C
:101180000220CDE901010320039007200490694665
:101190000448FFF783F906B010BD000000100140BD
:1011A0004438024000000240194808B50068009029
:1011B0001748001F0068009015480830006800902C
:1011C00013480C30006800901248016841F0040197
:1011D00001601148016821F030010160016841F0AF
:1011E000100101600C49002218310C484FF4802393
:1011F00004240B600092009D6D1C00958542FAD37B
:101200000C600092009D6D1C00958542FAD3F0E7BA
:101210002CED00E0303802400008024040420F0050
:101220002DE9F04186B014216846FFF7CEF8324828
:101230000024016841F004010160016801F004012B
:101240000591016841F080010160016801F08001B1
:101250000591016841F010010160016801F0100181
:101260000591016841F002010160016801F002018D
:101270000591016841F008010160016801F0080171
:101280000591016841F00101016000681B4F00F009
:1012900001000590012207213846FFF719FADFF80F
:1012A00060804FF40045002229464046FFF710FABF
:1012B000A810CDE90004694638460294FFF7EEF81D
:1012C000072000900126CDE9016469463846039461
:1012D000FFF7E4F80095CDE90164694640460394C0
:1012E000FFF7DCF8CDE90054694606480294FFF7A1
:1012F000D5F806B0BDE8F081303802400008024061
:1013000000100240000C02400B4810B50949016072
:1013100000217F22C0E90112FF22C0E903214161BF
:101320008161FFF73DFE002803D0BDE81040FFF7C4
:10133000B2B810BD00280040543800200C4810B549
:101340000A4901604FF4E1314160002181600C22C3
:10135000C160C0E904128161C161FFF7BDFE0028D0
:1013600003D0BDE81040FFF796B810BD0010014053
:1013700074380020FEE7FEE72DE9F04104460068DE
:101380000025C168490618D4C16841F08001C160D8
:10139000FFF7A4F906464FF47A78042707E000BF68
:1013A000FFF79CF9801B404501D96777012520682C
:1013B000C068400601D4002DF2D02846BDE8F08177
:1013C00070B5044600680025C16821F08001C16045
:1013D00020688068800606D42046FFF74DFE10B1D5
:1013E000042060770125284670BD000010B5044632
:1013F00080694FF0FF3110F8020C1038062826D211
:10140000DFE800F041261A03647B206801680129A7
:1014100008D002290AD0032919D14068BDE810403C
:1014200000F0CEBC406800F095FC0FE08168406899
:10143000BDE8104000F0DEBC2068012804D002287E
:1014400005D14548408801E000F04AFD206010BD0C
:101450002068012809D002280CD003280ED00428C7
:10146000F5D1BDE8104001F00BB96068BDE810404F
:1014700001F02EB9BDE8104001F04CB96068BDE83C
:10148000104000F027BE2068016806291CD2DFE862
:1014900001F01B03080D12178168406800F058FB2B
:1014A000D4E7001D07C800F081FBCFE7001D07C887
:1014B00000F02EFCCAE7001D07C800F0FFFAC5E7E0
:1014C000406800F0D3FAC1E70020BFE72068026857
:1014D000012A04D0022A07D0032A0CD108E0001DFB
:1014E00007C800F085FBB1E7406800F0C1FBADE73D
:1014F00000F006FBAAE7216010BD20680268092AF7
:10150000F9D2DFE802F005060B1014181C212500A3
:10151000F1E78168406800F099FF97E781684068CB
:1015200001F008F892E7406800F0DAFF8EE74068C3
:1015300000F0B2FF8AE7406800F0F0FC86E78168BF
:10154000406800F033FD81E7406800F06FFD7DE703
:10155000406800F007FD79E70800002000F0C6BCF5
:1015600030B593B030216846FEF72FFF14210CA848
:10157000FEF72BFF1E480024016841F080510160F6
:10158000006800F0805011901A48016841F4404111
:1015900001600068012100F4404011900A20CDE96B
:1015A00000041020CDE90310CDE907400225CDE964
:1015B0000515C020CDE9090504200B906846FFF70A
:1015C00039FB08B172B6FEE70F20CDE90C054FF4E8
:1015D000A050CDE90E404FF48050109003210CA88C
:1015E000FFF73EFA002801D072B6FEE713B030BD17
:1015F00040380240007000400248016841F4700128
:101600000160704788ED00E070B50446006801692C
:10161000E26821F44051114301612169A068E26947
:1016200008436169114308432168CA6849F20C63A1
:101630009A430243CA6020684169A26921F440715B
:101640001143416131492068884202D030498842C3
:1016500002D1FFF7AFFA01E0FFF79CFAE26900233D
:10166000192164253226B2F5004F626828D0A0FB0C
:101670000101930F9200FEF731FE0146B0FBF5F039
:101680006FF01802504301EB800006EB0010B0FB36
:10169000F5F000F0F002B1FBF5F002EB0012B1FB47
:1016A000F5F06FF01803584301EB800006EB0010D3
:1016B000B0FBF5F000F00F0021681044886070BDA9
:1016C000A0FB010192185B41FEF708FE0146B0FB4A
:1016D000F5F00201B1FBF5F06FF01803584301EB90
:1016E000800006EBC000B0FBF5F000F0F80002EB64
:1016F0004002B1FBF5F0584301EB800006EBC0005F
:10170000B0FBF5F000F00700D6E700000010014044
:1017100000140140014800F034B80000403E0020B1
:10172000FEE70907090E002804DB00F1E02080F83D
:101730000014704700F00F0000F1E02080F8141D45
:1017400070470907090E002804DB00F1E02080F84B
:101750000014704700F00F0000F1E02080F8141D25
:1017600070470907090E002804DB00F1E02080F82B
:101770000014704700F00F0000F1E02080F8141D05
:10178000704738B50446C068016811F0280F08D0CA
:1017900040688DF8000001226946A06800F080FBD7
:1017A00038BD617C21B1C16821F04001C16038BD04
:1017B00001226946606800F054FB002804DDE168FE
:1017C0009DF80000486038BDE068C16821F08001E4
:1017D000C16001206074E068C16841F04001E5E744
:1017E00008B5002114A000F0A9F906460120144C08
:1017F0008DF800004FF47A750021206800F04CFC51
:1018000000226946304600F079FA206800F04CFC6E
:10181000284600F058FF0021206800F03DFC01221E
:101820006946304600F06AFA206800F03DFC284620
:1018300000F049FFE0E700004C45443200000000A2
:101840000400002008B5002114A000F077F9064636
:101850000120134C8DF800004FF47A7500212068A8
:1018600000F01AFC01226946304600F047FA206871
:1018700000F01AFC284600F026FF0021206800F046
:101880000BFC00226946304600F038FA206800F070
:101890000BFC284600F017FFE0E700004C45440031
:1018A0000400002010B510B10168082902D04FF0E3
:1018B000FF3010BD00210171C18801220248FEF7EE
:1018C00007FF002010BD0000000802400020704704
:1018D00030B587B0032802D3002007B030BD1449CB
:1018E00001EBC004217909BB0121124B21710022B7
:1018F000627133F81000E080082020600E48036811
:1019000043F0040303600068019100F004000590B7
:10191000E088CDE90212094D009069462846FEF79D
:10192000BDFDE18801222846FEF7D2FE2046D4E71D
:101930009C3F002072290008303802400008024015
:101940004FF0FF3130B10268082A03D102790AB1A1
:10195000407970470846704710B5011E4FF0FF33BD
:1019600023D00868082820D10879F0B11048002A4F
:1019700003DD4FF001024A710AE003D14FF000028B
:101980004A710FE04A795AB14FF000024A714AB1E8
:10199000C9884FF0000200BFFEF79AFE002010BD7C
:1019A0000122F3E7C9880122F6E7184610BD0000BE
:1019B00000080240FEF798FEFFF7D2FDFFF730FC6B
:1019C000FFF7BCFCFFF7A0FC00F076FB00F028F866
:1019D00000F01EFC00F0AEFB00F0DAF900F0F0FDC4
:1019E00000F094F800F022F809A000F097FA0A49F4
:1019F00008600A48002120F0070000F089FB4FF43E
:101A0000FA7000F0DBFB00BF00F000FCFCE7000018
:101A10006C65646D74780000040000205408002098
:101A200001490020086070471C00002010B500220A
:101A3000074908A000F0DCF80122054906A000F0E3
:101A4000D7F8BDE810400022054906A000F0D0B844
:101A5000340000204C4544004C4544320000000056
:101A600020000020434F4D310000000070B51222CD
:101A7000C0F313044FF0FF31B2EB105F03D10D48F8
:101A80000068844201DB084670BD0B480A4D00EB3C
:101A9000041000268068803538B1416829B155F8B6
:101AA0002400884745F8246070BD45F82460002074
:101AB00070BD000018000020BC38002030B4122592
:101AC000C0F313034FF0FF34B5EB105F11D10A4898
:101AD000006883420DDA094850F8230048B1074DE9
:101AE000803D05EB03139B681BB11B690BB130BC38
:101AF0001847204630BC7047180000203C390020B1
:101B000001480068704700001800002010B5094B1C
:101B10000020014603F1800403EB00121170916074
:101B2000D16044F82010401C0828F5DB0248016011
:101B300010BD0000BC380020180000201FB5012295
:101B40000092CDE90101684610DF04B010BD00002D
:101B50002DE9F041884605460024124E124F1BE045
:101B6000002006EB04112A5C0B5C934213D112B1E6
:101B7000401C0828F7DB886868B102685AB1C86859
:101B80004146904738B10749803141F8240044F07C
:101B90009070BDE8F081641C38688442E0DB4FF04F
:101BA000FF30F6E7BC3800201800002030B41225C2
:101BB000C0F313034FF0FF34B5EB105F11D10A48A7
:101BC000006883420DDA094850F8230048B1074DF8
:101BD000803D05EB03139B681BB19B680BB130BCC8
:101BE0001847204630BC7047180000203C390020C0
:101BF0002DE9F04792466FF0010C70B369B31A4BB0
:101C00001A68082A03DB4FF0FF30BDE8F087002593
:101C10009946164C08E000BF04EB0516C75C16F8A1
:101C20000380B8451AD06D1C95424FF00003F3DBDA
:101C30004D4604EB0216C75CF754C75C17B15B1C3A
:101C4000072BF8DB04EB02100023C371C0E9021A72
:101C5000521C1846C9F80020D7E703E017B15B1CF7
:101C6000082BDBDB6046D0E718000020BC380020E2
:101C70002DE9F0434FF0FF3C80B11F4F00211D4C78
:101C80003A6809E0002304EB011600BF16F8038050
:101C9000C55CA84505D0491C9142F3DB6046BDE810
:101CA000F08315B15B1C082BF0DB1248B94680307D
:101CB000531E0DE004EB011505F1100696E8C01166
:101CC00085E8C01100EB81056D6840F82150491C82
:101CD0009942EFDB04EB0213002103F8101D00EB27
:101CE00082009960D96040F8041C521E0846C9F869
:101CF0000020D4E7BC380020180000201FB50323C3
:101D000001AC009384E80700684610DF04B010BD02
:101D100030B41225C0F313034FF0FF34B5EB105F5E
:101D200011D10A48006883420DDA094850F82300AF
:101D300048B1074D803D05EB03139B681BB1DB6881
:101D40000BB130BC1847204630BC7047180000204B
:101D50003C39002010B50D49002200BF01EB4213B1
:101D60001C782CB1521C0A2AF8DB4FF0FF3010BD52
:101D70000021445C5C54445C14B1491C0F29F8DB1D
:101D80000020D87342F0887010BD00005C3900203C
:101D900030B50020094C0146002204EB4013995451
:101DA000521C082AFBDB002203EB8205521C29612E
:101DB000042AF9DB401C0A28EEDB30BD5C39002028
:101DC00030B5C0F313010A2910DA0020084A04468E
:101DD000012502EB411200BF02EB8003196911B12A
:101DE00081F824501C61401C0428F5DB30BD000044
:101DF0005C39002070B5C0F313040D464FF0FF3678
:101E00000A2C14DA00F026FC020010D00D49002044
:101E100001EB441101EB80031B6953B1401C042802
:101E2000F8DB002D09DD284600F052FC07E03046C3
:101E300070BD01EB80000261F3E700F06BFC002055
:101E400070BD00005C390020082908DD4FF2F01257
:101E500002800022828042800839C18070470020C1
:101E60007047F0B50388A3F57144F03C01D0002021
:101E7000F0BD002300F108040EE085884688B542D5
:101E80000CD02D5DCD548588C6886D1CB5FBF6F74A
:101E900006FB175585805B1C9342EEDB1846F0BDB0
:101EA000F0B50388A3F57144F03C01D00020F0BDEB
:101EB000002300F108060EE04588C7886C1CB4FBBF
:101EC000F7FC07FB1C448788A4B2A74205D0CF5C6F
:101ED000AF5544805B1C9342EEDB1846F0BD00001A
:101EE00001484068400870470800002010B50A4CBF
:101EF0006068401C606000F07FF9A068002809DD80
:101F00002088401C80B22080A188890502D1608091
:101F10000020208010BD00000800002070B506469B
:101F200000F0F2F80E48002400EB4411097B39B1AF
:101F3000641C082CF8DB00F0E9F84FF0FF3070BDAE
:101F400000EB44153146284600F02EFB0020A86027
:101F50000120287300F0DAF844F0A07070BD000092
:101F6000403D002010B51422C0F313044FF0FF31A0
:101F7000B2EB105F01D1082C01DB084610BD00F068
:101F8000C3F80949002001EB4411024608730870A8
:101F9000C1F8080001EB8203521C1861042AF9DB26
:101FA00000F0B4F8002010BD403D002070B50D4693
:101FB00001461422C0F313004FF0FF36B2EB115F5D
:101FC0001DD108281BDA184901EB4014207BB0B161
:101FD00000F09AF800F03EFB01000ED0A06880B13E
:101FE00088420AD0037E0A7E934200D9027604F129
:101FF000100000F0D7FB002809DA00F087F830461F
:1020000070BDA160087E607300F080F809E000F008
:102010007DF8002D03DD284600F05AFB01E000F0BA
:10202000FBFA002070BD0000403D002070B5014665
:102030001422C0F313004FF0FF35B2EB115F10D143
:1020400008280EDA134901EB4014207B48B100F058
:102050005BF800F0FFFA10B1A168814203D000F0F4
:1020600055F8284670BD617B017604F1100000F040
:10207000A9FB002138B1A060027E6273C162012118
:1020800080F8241000E0A16000F040F800F0B4F8FF
:10209000002070BD403D00200EB506220092CDE923
:1020A0000101684615DF0EBD0EB50721CDE9001010
:1020B000684615DF0EBD00000448016841F4700158
:1020C00001600349000708607047000088ED00E0E8
:1020D00034EF00E010B54FF0E024A169084A094B45
:1020E0001268B2FBF3F2424306E0A369C81A01D5B5
:1020F000616908441946121A002AF6DC10BD000076
:102100000000002040420F0072B6704762B6704770
:1021100080F30988EFF3148011B140F0030001E06F
:1021200040F0020080F31488BFF36F8FBFF36F8F0E
:10213000704700000B4910B508684FF6FF021040C9
:10214000094A10430860FF216FF00100FFF7E9FA28
:102150000021481EFFF7E5FA0121BDE81040881F65
:10216000FFF7DFBA0CED00E00000FA05021F4FF0A8
:1021700080731360121F1160121F00211160121F63
:10218000CB1E1160121F1160121F1160121F11600F
:10219000121F1160121F1360121F1160121F1160B5
:1021A000121F1160121F1160121F1160121F1160A7
:1021B000121F116040F8441D704700000C4910B513
:1021C00009680C4AA1FB00010023FEF787F8401EB6
:1021D000B0F1807F0AD24FF0E02460610F216017D8
:1021E000FFF7AFFA0020A0610720206110BD0000BA
:1021F0000000002040420F0002494FF0805008606C
:102200007047000004ED00E020BF704730BF70470A
:102210002DE9F05F4449454D4EF60158C1F8008064
:102220002868DFF80C91C0EB001209EB82004FF434
:102230008057C0E900170024C0E902744FF4FA6621
:10224000C0E904464FF00A0B80F818B044764FF00E
:10225000010A80F824A0C0E90A6404630A463B46E8
:102260003449446300F024FA28683349401C28604C
:10227000C0EB001209EB8200C1F80080C0E9001732
:10228000C0E90274C0E9044680F818B0447680F8CA
:1022900024A0C0E90A6404630A463B462749446314
:1022A00000F006FA28682649401C2860C0EB00129E
:1022B00009EB82007F10C1F80080C0E90017C0E977
:1022C0000274C0E9044609210176447680F824A00E
:1022D000C0E90A6404633B46194A1A49446300F0A2
:1022E000E7F928681849401C2860C0EB001209EB88
:1022F0008200C1F80080C0E90017C0E90274C0E99B
:10230000044680F818B0447680F824A0C0E90A6436
:1023100004630A463B460D49446300F0C9F9286846
:10232000401C2860BDE8F09F540800201C000020DD
:102330009C3A00204518000854180020E1170008B6
:10234000542800200100060854300020010008082D
:1023500070B5164A0025164C93685B1E01D2D160F9
:1023600011E0C3EB031304EB8303996393F8246038
:10237000032E08D11E6A8E4202D983F8245002E04F
:10238000012183F82410906000280BDD401EC0EB73
:10239000001004EB800051684163032180F8241091
:1023A000806B70BD9560D06870BD00000800002093
:1023B0009C3A002010B500F017F80949401C8A68C3
:1023C00090420BD1002807DD064AC0EB001002EB5B
:1023D0008000496840F8081C4FF0FF3010BD000035
:1023E000080000209C3A00202DE9F047FF264FF01E
:1023F000FF38C1460024DFF84CA0134F1BE000BF9C
:10240000C4EB04110AEB8105284600F09DF995F80C
:102410002400012801D003280BD1287EB04202D22B
:102420000646686B03E004D1686B404501D28046E4
:10243000A146641CE4B238688442E1DB4846BDE84A
:10244000F08700009C3A00201C0000202DE9F0419C
:102450000E460746FFF758FE0E48002400EB4411D5
:10246000097B41B1641C082CF8DBFFF74FFE4FF0ED
:10247000FF30BDE8F08100EB44153946284600F0F6
:1024800093F80120AE602873FFF740FE44F0987087
:10249000EFE70000403C002010B51322C0F3130406
:1024A0004FF0FF31B2EB105F01D1082C01DB084681
:1024B00010BDFFF729FE0949002001EB4411024637
:1024C00008730870C1F8080001EB8203521C186100
:1024D000042AF9DBFFF71AFE002010BD403C002063
:1024E00010B51323C0F313014FF0FF32B3EB105FAD
:1024F00013D1082911DA0E4800EB4114207B60B19A
:10250000FFF702FE04F1100000F05CF938B1002181
:10251000C162012180F8241004E0104610BDA068BB
:10252000401CA060FFF7F2FDFFF766FE002010BD23
:10253000403C002070B50D4601461322C0F3130045
:102540004FF0FF36B2EB115F10D108280EDA1549B3
:1025500001EB4014207B48B1FFF7D6FDA0680028AE
:1025600006DD401EA060FFF7D1FD18E0304670BDCB
:1025700000F070F8010005D004F1100000F012F92D
:10258000002802DAFFF7C2FDF0E7FFF7BFFD002DDC
:1025900003DD284600F09CF801E000F03DF8002043
:1025A00070BD0000403C002000228B5C83548B5C9B
:1025B00013B1521C072AF8DB0021C17170470000DB
:1025C00030B50021124C084604EB41120023107074
:1025D0009060107302EB83055B1C2861042BF9DB10
:1025E000491C0829F0DB0B4C002200BF04EB421110
:1025F0005FF00003087088600873487301EB83057F
:102600005B1C2861042BF9DB521C082AEEDB30BD71
:10261000403C0020403D002010B5FFF775FD0B4801
:10262000806800280DDD0A49C0EB001001EB800036
:102630004FF0FF3140F8101C022100F8181CFFF782
:10264000DBFDBDE81040FFF761BD00000800002081
:102650009C3A002010B50024FFF756FD064880681C
:10266000002805DD0549C0EB001001EB80043C3C6F
:10267000FFF74CFD204610BD080000209C3A0020CA
:10268000094810B58068002807DD084AC0EB001033
:1026900002EB8000002100F8181CFFF7ADFDBDE83B
:1026A0001040FFF7B1BD0000080000209C3A002058
:1026B00010B50446D01820F00700C4E90702FFF760
:1026C00055FDA06310BD0146012011DF70470000D9
:1026D00010B50446FFF718FD0C488068002811DD8E
:1026E0000B49C0EB001001EB80014FF47A704443BA
:1026F0004010B4FBF0F041F8100C022001F8180C67
:10270000FFF77AFDBDE81040FFF700BD080000208C
:102710009C3A002010B5FFF7F7FC094880680028B4
:1027200009DD0849C0EB001001EB8000022100F830
:10273000181CFFF761FDBDE81040FFF7E7BC000083
:10274000080000209C3A0020154910B54B68016B29
:102750005A1A90F82410002920D00363002A1DDDA6
:1027600003291BD0C46A0123002C17DB07DDA4EB6F
:102770000202C262002A11DC0022C2620AE0846AFC
:10278000A21A8262002A09DC446922448262002A79
:1027900000DC8462022901D180F8243010BD0000E1
:1027A000080000205FF0000250F822302BB1521CCC
:1027B000042AF9DB4FF0FF30704740F82210002068
:1027C0007047000010B5FF234FF0FF325FF00001AB
:1027D00050F8214024B1247E9C4201D823460A4669
:1027E000491C0429F4DB002A01DA002010BD50F84E
:1027F0002210002340F82230084610BD10B10168B5
:10280000142902D04FF0FF30704700210174C068D6
:10281000C16821F40051C16000207047002070475A
:102820002DE9F04186B0884618B1002006B0BDE819
:10283000F081304D0026287C08B12846F6E72D4F60
:1028400001242C7414376C7438468021FFF7FCFA8D
:10285000686007F180008021FFF7F6FA264FC5E98E
:1028600002072648016841F001010160006800F09C
:102870000100059021481430016841F01001016009
:10288000006801A900F010000590022081E85100C5
:102890000720049060021A4C009069462046FDF71C
:1028A000FDFD20150090694602962046FDF7F6FDD5
:1028B000144C0C202760C4E90186E660C4E904607A
:1028C000A6612046E661FEF707FC0A221146252094
:1028D000FDF76AFF2520FDF759FF2068C16841F028
:1028E0002001C1602068C16821F08001C16014200E
:1028F0002860A2E7403E002000100140303802402E
:1029000000000240543F002010B10368142B02D095
:102910004FF0FF3070478068FFF7A3BA10B5041E70
:1029200002D02068142802D04FF0FF3010BD207C68
:102930000028FBD06068FFF7B3FA617C0029F5D06E
:1029400000216174E168CA6842F08002CA6010BD6B
:102950004FF04070E1EE100A7047000000000000E8
:10296000000001020304060708090000000001023C
:102970000304010002000400982900080000002060
:1029800054000000E8010008EC2900085400002071
:10299000C4450000040200080024F400FFFFFFFF0C
:1029A0000000000000000000000000000000000027
:1029B000000000000000000021280008FD2700089A
:1029C000092900081D2900081D280008D118000841
:1029D000A51800084119000859190008CD18000869
:0C29E000010000001000000000000000DA
:04000005080001AD41
:00000001FF
