:020000040800F2
:10000000001400204D020008131300089511000889
:10001000111300087F0400082D16000800000000DE
:10002000000000000000000000000000AF02000817
:1000300081040008000000008D0200086914000817
:1000400067020008670200086702000867020008EC
:1000500067020008670200086702000867020008DC
:1000600067020008670200086702000867020008CC
:1000700067020008670200086702000867020008BC
:1000800067020008670200086702000867020008AC
:10009000670200086702000867020008670200089C
:1000A000670200086702000867020008670200088C
:1000B000670200086702000867020008670200087C
:1000C000670200086702000867020008670200086C
:1000D000670200082116000867020008670200088E
:1000E000670200086702000867020008670200084C
:1000F000670200086702000867020008670200083C
:10010000670200086702000867020008670200082B
:10011000670200086702000867020008670200081B
:10012000670200086702000867020008670200080B
:1001300067020008670200086702000867020008FB
:1001400067020008670200086702000867020008EB
:1001500067020008670200086702000867020008DB
:1001600067020008670200086702000867020008CB
:10017000670200086702000867020008000000002C
:1001800067020008670200086702000867020008AB
:10019000670200086702000867020008670200089B
:1001A00000000000000000006702000800F002F8F4
:1001B00000F03CF80AA090E8000C82448344AAF1C5
:1001C0000107DA4501D100F031F8AFF2090EBAE8C3
:1001D0000F0013F0010F18BFFB1A43F0010318477B
:1001E0004820000068200000103A24BF78C878C179
:1001F000FAD8520724BF30C830C144BF04680C602D
:10020000704700000023002400250026103A28BF74
:1002100078C1FBD8520728BF30C148BF0B60704778
:100220001FB501F0EFFF1FBD10B510BD00F0EDF8D8
:100230001146FFF7F5FF01F0E1FA00F00BF903B406
:10024000FFF7F2FF03BC00F013F9000009488047F4
:1002500009480047FEE7FEE7FEE7FEE7FEE7FEE7A8
:10026000FEE7FEE7FEE7FEE704480549054A064BC0
:100270007047000005150008AD010008000E0020C1
:1002800000140020001000200010002001B50C4ACE
:10029000904710F1000F09D4EFF3098121E9F00F25
:1002A000084A9047B0E8F00F80F3098801BD1EF0BE
:1002B000040F0CBFEFF30880EFF3098001F064B87E
:1002C000391E0008D11D000853EA020C00F06980B5
:1002D0002DE9F04B4FF00006002B1FBFB3FA83F55A
:1002E00003FA05F424FA05F65E4012BF1643B2FA8B
:1002F00082F502FA05F4C5F120051EBF22FA05FCBD
:1003000044EA0C04203556EA044C4FEA144418BF62
:10031000641C4FF000084FF00009904271EB030C91
:1003200039D3002919BFB1FA81F701FA07F6B0FAFB
:1003300080F700FA07F6C7F120071EBF20FA07FC76
:1003400046EA0C062037B6FBF4FCA7EB0507103F86
:1003500007F01F0BCBF120060CFA0BFB2CFA06F66C
:1003600044BFB3460026202FA4BF5E464FF0000BCB
:100370005BEA060C08BF4FF0010B19EB0B09ABFB56
:10038000027C48EB0608C01B06FB02CC0BFB03CC2F
:1003900071EB0C01C1E70B46024641464846BDE8F9
:1003A000F08B13B54FF000004FF00001AFF3008069
:1003B000BDE81C4070474FF0000200B5134694465C
:1003C0009646203922BFA0E80C50A0E80C50B1F1AD
:1003D0002001BFF4F7AF090728BFA0E80C5048BFC1
:1003E0000CC05DF804EB890028BF40F8042B08BF5F
:1003F000704748BF20F8022B11F0804F18BF00F85B
:10040000012B7047704770477047754600F02CF815
:10041000AE4605006946534620F00700854618B0F1
:1004200020B5FFF721FFBDE820404FF000064FF058
:1004300000074FF000084FF0000B21F00701AC4619
:10044000ACE8C009ACE8C009ACE8C009ACE8C00938
:100450008D46704710B50446AFF300802046BDE8D6
:100460001040FFF7ECBE000000487047A00D0020D0
:1004700001491820ABBEFEE7260002007047FEE7E8
:10048000704772B6FEE700002DE9F84FDFF8F8A1DB
:100490000022012403254FF00F090AF1040BAAF1F1
:1004A000040E00BF0B6804FA02F63340B34270D169
:1004B0000F7907F00307012F01D0022F16D18768AB
:1004C0004FEA420805FA08FC27EA0C07D1F80CC0ED
:1004D0000CFA08FC4CEA070CC0F808C04768B743A0
:1004E0000E79C6F3001696403E4346600E79F643F9
:1004F000B6070AD0C7684FEA420C05FA0CF6B743B4
:100500008E6806FA0CF63E43C6600E7906F00306C6
:10051000022E10D1D60800EB8608D8F820605707C5
:100520004FEAD76C09FA0CF7BE430F6907FA0CF7CC
:100530003743C8F8207006684FEA420C05FA0CF7FA
:10054000BE430F7907F0030707FA0CF7374307603C
:100550004E6816F4403F1CD04C4E376847F4804735
:100560003760366822F0030706F480460096484E4E
:1005700007EB060CDCF8086897073F0F09FA07F845
:1005800026EA0806DFF80C81404503D14FF0000849
:1005900041E072E0DFF80081404502D14FF00108F0
:1005A00039E0DFF8F880404502D14FF0020832E030
:1005B000DFF8EC80404502D14FF003082BE0DFF874
:1005C000E480404502D14FF0040824E0DFF8D880F1
:1005D000404502D14FF005081DE0DFF8D0804045CE
:1005E00002D14FF0060816E0DFF8C480404502D182
:1005F0004FF007080FE0DFF8BC80404502D14FF014
:10060000080808E0DFF8B080404502D14FF0090843
:1006100001E04FF00A0808FA07F848EA0608CCF8A3
:100620000888DAF800605746D1F804C09E435FEAB4
:10063000CC2C00D51E433E60DBF800605F46D1F84D
:1006400004C09E435FEA8C2C00D51E433E60DEF85A
:1006500000607746D1F804C09E435FEA8C3C00D529
:100660001E433E60084F083F3E68D1F804C09E43D9
:100670005FEACC3C00D51E433E60521C102AFFF4BA
:1006800011AFBDE8F88F0000083C0140443802403B
:100690000030014000000240000402400008024017
:1006A000000C0240001002400014024000180240FA
:1006B000001C024000200240002402400AB1816177
:1006C00070470904FBE7000001488068704700009C
:1006D0004C0000200B4810B5016841F40071016026
:1006E000016841F480610160016841F4807101603A
:1006F000032000F06FF80F2000F006F800F024F857
:10070000002010BD003C024070B50D4D04464FF472
:100710007A712878B1FBF0F00A490968B1FBF0F072
:1007200000F0BCFC48B9102C07D200222146501E14
:1007300000F030F800206C6070BD012070BD00003A
:100740004C000020000000200A4808B5016841F470
:1007500080410160006800F4804000900548001F5F
:10076000016841F080510160006800F08050009005
:1007700008BD000044380240002809DB00F01F02D9
:10078000012191404009800000F1E020C0F80011F3
:1007900070470000F0B40E4B1B680C46C3F30223F5
:1007A000C3F10705042D00D90425191D072901D21D
:1007B000002300E0DB1E012606FA05F1491E214058
:1007C00099409E40761E16403143F0BC00F03FBF7A
:1007D0000CED00E0064900F0070208684FF6FF0341
:1007E000184040EA0220034A1043086070470000A6
:1007F0000CED00E00000FA052DE9F84F0446006812
:10080000DFF824A2894F8A4DC1074FF001084FF04D
:10081000000603D1810701D4400648D5CAF86860B4
:10082000FFF752FF814605E0FFF74EFFA0EB0900FE
:1008300002287DD828680001F6D42078C1077D48B9
:1008400005D06168227A890141EA0271016021784C
:10085000890711D501686268237B9201C1F3027197
:1008600042EA036242EA017101603968E26921F0FB
:100870001F01521E114339602178490608D561686D
:10088000227B890141EA0261227A41EA0271016018
:10089000CAF86880FFF718FF814605E0FFF714FFEC
:1008A000A0EB0900022843D828680001F6D520688B
:1008B000410701D400074ED5CAF87060FFF704FF66
:1008C000814605E0FFF700FFA0EB090002282FD8C2
:1008D0002868C0438000F5D520784107564814D5D4
:1008E00001682269237D9201C1F3027142EA036229
:1008F00042EA017101603968226A6FF0FF0321F456
:10090000F85103EB0222114339602178090712D50F
:1009100001682269C1F30361920142EA0161227E0A
:1009200041EA027101603868616A20F4403000E0F9
:1009300051E008433860CAF87080FFF7C5FE0746EB
:1009400005E000BFFFF7C0FEC01B022843D828689F
:10095000C0438000F6D42078800653D53448403018
:10096000016841F0805101600068344D00F0805012
:100970000090286840F480702860FFF7A5FE0746C5
:1009800005E000BFFFF7A0FEC01B022823D828689F
:10099000C005F7D5274D143D286810F4407020D0CD
:1009A000218D01F4407181421BD0286820F44071F0
:1009B0002348C0F80080066029602868C00710D06E
:1009C000FFF782FE064641F2883707E0FFF77CFE1C
:1009D000801BB84202D90320BDE8F88F2868800741
:1009E000F4D5A16A1248C1F301220830032A13D0BA
:1009F000016821F4F81101602868218DC1F30B0111
:100A0000084328602078C00604D50E4994F82C00CD
:100A1000C1F8E0010020DFE702680B4B22F4F81276
:100A200019400A430260E7E7000047428C38024061
:100A3000003802408438024088380240007000408C
:100A4000400E474200104742FFFCFF0F2DE9F047E0
:100A50000E46050065D0DFF81481D8F80000F7B223
:100A600000F00F00B04207D288F80070D8F80000FC
:100A700000F00F00B04254D128683D4C810712D5D8
:100A8000400703D5206840F4E05020602878000734
:100A900003D5206840F4604020602068A96820F0F9
:100AA000F000084320602878C0072DD030496868DE
:100AB0000839012812D0022813D0032811D0096860
:100AC000890700292DDA216821F003010143216003
:100AD000FFF7FAFD814641F2883A0EE00968890382
:100AE000EFE709688901ECE7FFF7EEFDA0EB0901EC
:100AF000514502D90320BDE8F0872068696800F0FD
:100B00000C00B0EB810FEFD1D8F80010404601F097
:100B10000F01B14207D90770006800F00F00B04222
:100B200001D00120E7E72878400705D52068E9686B
:100B300020F4E050084320602878000706D520689C
:100B4000296920F4604040EAC100206000F038F8D4
:100B50002168084AC1F30311515CC8400649086086
:100B600006480068FFF7D0FD0020C4E7003C0240C3
:100B7000083802400E22000800000020500000202B
:100B80000448054900680968044AC1F38221515CA0
:100B9000C840704700000020083802401E220008AC
:100BA0000448054900680968044AC1F34231515CB0
:100BB000C840704700000020083802401E2200088C
:100BC000154810B5006810F00C02144813D04110FD
:100BD000042A0FD0082A0ED10F4C241F2268236844
:100BE00002F03F025B0207D52068C0F38810A0FB2B
:100BF000010106E0084610BD2168C1F38811A1FB80
:100C000000010023FFF760FB2168C1F30141491C8B
:100C10004900B0FBF1F010BD083802400024F40098
:100C20002DE9F84F04006ED02078DFF84C93C00710
:100C3000A9F104054AD009F104000168C1F381015A
:100C4000012908D00068C0F3810002280AD1D9F830
:100C50000000400206D52868800337D56068002868
:100C6000E1D033E06068B0F5803F10D0B0F5A02F40
:100C7000286810D020F480302860286820F4802074
:100C800028606068A8B1FFF71FFD06460DE02868E0
:100C900040F48030F4E740F480202860F7E700BF9C
:100CA000FFF712FD801B642873D828688003F7D5EE
:100CB0000CE0FFF709FD064605E000BFFFF704FD65
:100CC000801B6428F0D828688003F7D42078DFF8E8
:100CD000AC8280074FF0000A3ED5A748001D01688E
:100CE00011F00C0F08D00068C0F3810002280BD16E
:100CF000D9F80000400207D42868800716D5E068BC
:100D0000012800D112E033E1E068B8B10120C8F851
:100D10000000FFF7D9FC064605E000BFFFF7D4FC52
:100D2000801B0228C0D828688007F7D52868216969
:100D300020F0F80040EAC10028600DE0C8F800A0EB
:100D4000FFF7C2FC064604E0FFF7BEFC801B02284A
:100D50001FD828688007F7D42078000722D5864F4F
:100D600087486169703771B101210160FFF7ACFC00
:100D7000064604E0FFF7A8FC801B022809D8386863
:100D80008007F7D50EE0C0F800A0FFF79DFC0646EF
:100D900005E082E0FFF798FC801B02287DD83868C8
:100DA0008007F7D42078400768D5DFF8CCB100275A
:100DB0000BF13C0BDBF80000C0000BD4DBF800109B
:100DC00041F08051CBF80010DBF80000012700F063
:100DD000805000906B4E3068C00510D4306840F4ED
:100DE00080703060FFF770FC009005E0FFF76CFC4E
:100DF0000099401A022850D83068C005F6D55E4EDA
:100E0000A0686C3601280FD00528306810D020F07B
:100E100001003060306820F004003060A068B8B194
:100E2000FFF752FC00900FE0306840F00100F4E75B
:100E300040F004003060F7E7FFF746FC0099411AE4
:100E400041F28830814266D830688007F4D50EE0E0
:100E5000FFF73AFC009007E0FFF736FC0099411AD3
:100E600041F28830814256D830688007F4D42FB1DF
:100E7000DBF8001021F08051CBF80010A069C8B356
:100E80003D49091D0968C1F3810102294AD00228A0
:100E9000504607D0C8F8600000E03CE0FFF714FCC3
:100EA00004463BE04746C8F86000FFF70DFC0646E5
:100EB00005E000BFFFF708FC801B02282BD828683C
:100EC0008001F7D4D4E907010843A16A2E4A4908F2
:100ED00002EB0141626A41EA8211084394F82C1046
:100EE00040EA0161C9F8001001203866FFF7ECFB09
:100EF000044606E03EE000BFFFF7E6FB001B0228C9
:100F000009D828688001F7D534E000BFFFF7DCFB83
:100F1000001B022802D90320BDE8F88F2868800151
:100F2000F4D427E00128F7D0D9F80000E26900F4F2
:100F3000800191421CD1226A00F03F01914217D1F9
:100F400047F6C071626A0140B1EB821F10D1A26AFC
:100F50004FF0FF3300F4403103EB5202B1EB024F8C
:100F600006D194F82C1000F07060B0EB016F01D046
:100F70000120D1E70020CFE70438024000004742BB
:100F8000800E4742007000400000FFFF10B50400D3
:100F900002D0607F10B106E0012010BD0020207754
:100FA000204600F041F8022060772068C168C943FC
:100FB000C90632D5CA2141622168532048622046C1
:100FC00000F0A8F920BB20688168164A11408160B2
:100FD0002168886862681043D4E904231A431043E7
:100FE00088602168E068086120680169228941EA17
:100FF00002410161204600F0B1F948B921680A6C4C
:1010000022F480220A6421680A6CA3691A430A64E4
:101010002268FF21516208B110BD002001216177D3
:1010200010BD0000BFFF8FFF10B58CB0044630210B
:101030006846FFF7C0F90949206888420CD1202092
:10104000009000010A906846FFF7D6FB08B1FFF751
:1010500018FA0349012008600CB010BD00280040B8
:101060003C0E474270B504460B482168C860FFF744
:101070002BFB05464FF47A7607E000BFFFF724FB11
:10108000401BB04201D9032070BD2068C0688006B3
:10109000F4D5002070BD00005F7F010010B5401E38
:1010A000B0F1807F01D3012010BD4FF0E0246061DA
:1010B0000F21601700F0CBFA0020A061072020610B
:1010C000002010BD70B5040004D094F84100002544
:1010D00010B106E0012070BD84F84050204600F0B9
:1010E00023F8242084F841002068C16821F40051CD
:1010F000C160204600F00EFA2068016921F4904199
:1011000001612068416921F02A0141612068C168BC
:1011100041F40051C1606564202084F8410084F8E6
:1011200042006563002070BD10B586B004461421EE
:101130006846FFF740F914492068884221D11348D6
:101140000021026842F010020260006800F0100006
:1011500005900E481438026842F0010202600068EF
:1011600000F0010005904FF4C06000900220CDE92E
:101170000101032003900720049069460448FFF70B
:1011800083F906B010BD0000001001404438024051
:1011900000000240084808B5006800900648001F9B
:1011A00000680090044808300068009002480C3045
:1011B00000680090FEE700002CED00E02DE9F04112
:1011C00086B014216846FFF7F6F83248002401681B
:1011D00041F004010160016801F00401059101681A
:1011E00041F080010160016801F080010591016812
:1011F00041F010010160016801F0100105910168E2
:1012000041F002010160016801F0020105910168ED
:1012100041F008010160016801F0080105910168D1
:1012200041F00101016000681B4F00F001000590D2
:10123000002207213846FFF741FADFF860804FF4BB
:101240000045002229464046FFF738FAA810CDE9AC
:101250000004694638460294FFF716F9072000900B
:101260000126CDE90164694638460394FFF70CF97D
:101270000095CDE90164694640460394FFF704F9FF
:10128000CDE90054694606480294FFF7FDF806B020
:10129000BDE8F081303802400008024000100240F2
:1012A000000C02400B4810B50949016000217F2263
:1012B000C0E90112FF22C0E9032141618161FFF70A
:1012C00065FE002803D0BDE81040FFF7DAB810BD76
:1012D00000280040580800200C4810B50A49016059
:1012E0004FF4E1314160002181600C22C160C0E90E
:1012F00004128161C161FFF7E5FE002803D0BDE85B
:101300001040FFF7BEB810BD001001407808002063
:10131000FEE7FEE72DE9F041044600680025C168BC
:10132000490618D4C16841F08001C160FFF7CCF9CB
:1013300006464FF47A78042707E000BFFFF7C4F9A8
:10134000801B404501D9677701252068C0684006A9
:1013500001D4002DF2D02846BDE8F08170B50446D6
:1013600000680025C16821F08001C16020688068A4
:10137000800606D42046FFF775FE10B10420607782
:101380000125284670BD000010B50446806910F89C
:10139000020C102843D0112826D0122818D0132868
:1013A00021D120680168012908D002290AD0032927
:1013B00019D14068BDE8104000F0C8BB406800F09B
:1013C0008FFB0FE081684068BDE8104000F0D8BB9B
:1013D0002068012804D0022805D12248408801E075
:1013E00000F040FC206010BD2068012809D00228D0
:1013F0000CD003280ED00428F5D1BDE8104000F031
:10140000D7BD6068BDE8104000F016BEBDE81040D2
:1014100000F034BE6068BDE8104000F093BD206865
:10142000016806291CD2DFE801F01B03080D121722
:101430008168406800F098FAD4E7001D07C800F002
:10144000C1FACFE7001D07C800F028FBCAE7001D5E
:1014500007C800F045FAC5E7406800F019FAC1E78F
:101460000020BFE70400002000F002BC30B593B0BC
:1014700030216846FEF79FFF14210CA8FEF79BFF62
:101480001E480024016841F080510160006800F0AE
:10149000805011901A48016841F440410160006891
:1014A000012100F4404011900A20CDE900041020F1
:1014B000CDE90310CDE907400225CDE90515C0208F
:1014C000CDE9090504200B906846FFF7A9FB08B198
:1014D00072B6FEE70F20CDE90C054FF4A050CDE920
:1014E0000E404FF48050109003210CA8FFF7AEFA85
:1014F000002801D072B6FEE713B030BD403802407C
:10150000007000400248016841F4700101607047BA
:1015100088ED00E070B5044600680169E26821F4D6
:101520004051114301612169A068E2690843616982
:10153000114308432168CA6849F20C639A43024385
:10154000CA6020684169A26921F440711143416178
:1015500031492068884202D03049884202D1FFF7E1
:101560001FFB01E0FFF70CFBE26900231921642552
:101570003226B2F5004F626828D0A0FB0101930F1C
:101580009200FEF7A1FE0146B0FBF5F06FF01802E5
:10159000504301EB800006EB0010B0FBF5F000F0CB
:1015A000F002B1FBF5F002EB0012B1FBF5F06FF0C9
:1015B0001803584301EB800006EB0010B0FBF5F078
:1015C00000F00F0021681044886070BDA0FB01018D
:1015D00092185B41FEF778FE0146B0FBF5F0020180
:1015E000B1FBF5F06FF01803584301EB800006EBF8
:1015F000C000B0FBF5F000F0F80002EB4002B1FBD8
:10160000F5F0584301EB800006EBC000B0FBF5F0AD
:1016100000F00700D6E70000001001400014014070
:10162000014800F024B80000440C0020FEE7090740
:10163000090E002804DB00F1E02080F80014704758
:1016400000F00F0000F1E02080F8141D704709073A
:10165000090E002804DB00F1E02080F80014704738
:1016600000F00F0000F1E02080F8141D704738B53D
:101670000446C068016811F0280F08D040688DF852
:10168000000001226946A06800F0D0FA38BD617CF4
:1016900021B1C16821F04001C16038BD0122694615
:1016A000606800F0A4FA002804DDE1689DF80000FD
:1016B000486038BDE068C16821F08001C160012048
:1016C0006074E068C16841F04001E5E708B50021B9
:1016D0000CA000F03FF9054601208DF800004FF402
:1016E000FA7401226946284600F0CEF9204600F03F
:1016F0009FFC00226946284600F0C6F9204600F00B
:1017000097FCEEE74C45440010B510B1016808297C
:1017100002D04FF0FF3010BD0021017101221146AF
:101720000248FEF7CBFF002010BD00000008024079
:101730000020704730B5124C87B02079E0B9012005
:101740001049207160710B68002243F004030B60A4
:101750000968CDE9020201F0040105910A4D0190EA
:10176000009069462846FEF78FFE00220121284698
:10177000FEF7A4FF0820206007B0014830BD00003C
:101780004400002030380240000802404FF0FF3192
:1017900030B10268082A03D102790AB14079704752
:1017A0000846704710B5011E4FF0FF3322D008687D
:1017B00008281FD10879E8B10F48002A03DD4FF04F
:1017C00001024A710AE003D14FF000024A710FE0B2
:1017D0004A795AB14FF000024A714AB14FF0000203
:1017E0004FF00101FEF76AFF002010BD0122F3E770
:1017F0000122F5E7184610BD00080240FEF76AFF17
:10180000FFF734FEFFF7DAFCFFF766FDFFF74AFD4E
:1018100000F046FA00F01EF800F0A8FA00F054FAC2
:1018200000F07CF900F07EF800F01AF8084820F08B
:10183000070000F06DFA022000F065FA00F060FA8F
:101840004FF4FA7000F068FA00F08EFAFCE700003E
:10185000580400200149002008607047180000204B
:1018600010B50022054906A000F0CEF8BDE81040F2
:101870000022054905A000F0C7B800001C000020A8
:10188000434F4D3100000000300000204C45440023
:1018900070B51222C0F313044FF0FF31B2EB105FAA
:1018A00003D10D480068844201DB084670BD0B4837
:1018B0000A4D00EB041000268068803538B141687D
:1018C00029B155F82400884745F8246070BD45F8D3
:1018D0002460002070BD000014000020C00800201B
:1018E00030B41225C0F313034FF0FF34B5EB105F93
:1018F00011D10A48006883420DDA094850F82300E4
:1019000048B1074D803D05EB03139B681BB11B6974
:101910000BB130BC1847204630BC70471400002083
:101920004009002010B5094B0020014603F1800456
:1019300003EB001211709160D16044F82010401C3C
:101940000828F5DB0248016010BD0000C008002037
:10195000140000201FB501220092CDE90101684664
:1019600010DF04B010BD00002DE9F04188460546A7
:101970000024124E124F1BE0002006EB04112A5CDB
:101980000B5C934213D112B1401C0828F7DB886826
:1019900068B102685AB1C8684146904738B10749F2
:1019A000803141F8240044F09070BDE8F081641C5F
:1019B00038688442E0DB4FF0FF30F6E7C0080020D3
:1019C0001400002030B41225C0F313034FF0FF348D
:1019D000B5EB105F11D10A48006883420DDA09485F
:1019E00050F8230048B1074D803D05EB03139B6879
:1019F0001BB19B680BB130BC1847204630BC704708
:101A000014000020400900202DE9F04792466FF0B5
:101A1000010C70B369B31A4B1A68082A03DB4FF044
:101A2000FF30BDE8F08700259946164C08E000BF5E
:101A300004EB0516C75C16F80380B8451AD06D1C78
:101A400095424FF00003F3DB4D4604EB0216C75CF2
:101A5000F754C75C17B15B1C072BF8DB04EB0210D3
:101A60000023C371C0E9021A521C1846C9F80020AD
:101A7000D7E703E017B15B1C082BDBDB6046D0E740
:101A800014000020C00800201FB5032301AC009300
:101A900084E80700684610DF04B010BD30B412259A
:101AA000C0F313034FF0FF34B5EB105F11D10A48B8
:101AB000006883420DDA094850F8230048B1074D09
:101AC000803D05EB03139B681BB1DB680BB130BC99
:101AD0001847204630BC7047140000204009002001
:101AE00010B50D49002200BF01EB42131C782CB148
:101AF000521C0A2AF8DB4FF0FF3010BD0021445C75
:101B00005C54445C14B1491C0F29F8DB0020D873E5
:101B100042F0887010BD00006009002030B5002040
:101B2000094C0146002204EB40139954521C082A28
:101B3000FBDB002203EB8205521C2961042AF9DB3E
:101B4000401C0A28EEDB30BD6009002030B5C0F330
:101B500013010A2910DA0020084A0446012502EB85
:101B6000411200BF02EB8003196911B181F82450C2
:101B70001C61401C0428F5DB30BD0000600900201A
:101B800070B5C0F313040D464FF0FF360A2C14DA7B
:101B900000F0F8F9020010D00D49002001EB4411CB
:101BA00001EB80031B6953B1401C0428F8DB002DB6
:101BB00009DD284600F040FA07E0304670BD01EB31
:101BC00080000261F3E700F059FA002070BD0000C8
:101BD00060090020082908DD4FF2F012028000227F
:101BE000828042800839C180704700207047F0B57C
:101BF0000388A3F57144F03C01D00020F0BD002320
:101C000000F108040EE085884688B5420CD02D5DB1
:101C1000CD548588C6886D1CB5FBF6F706FB1755B5
:101C200085805B1C9342EEDB1846F0BDF0B503885F
:101C3000A3F57144F03C01D00020F0BD002300F179
:101C400008040BE04688CD5C35554588C6886D1C78
:101C5000B5FBF6F706FB175545805B1C9342F1DB9D
:101C60001846F0BD01484068400870470400002055
:101C700010B50A4C6068401C606000F06BF8A0680A
:101C8000002809DD2088401C80B22080A1888905B9
:101C900002D160800020208010BD000004000020E0
:101CA0000248016841F470010160704788ED00E06E
:101CB00072B6704762B670474FF0E02040697047D7
:101CC0004FF0E020806970470B4910B508684FF667
:101CD000FF021040094A10430860FF216FF0010025
:101CE000FFF7A5FC0021481EFFF7A1FC0121BDE87C
:101CF0001040881FFFF79BBC0CED00E00000FA05C8
:101D0000BFF36F8F704780F31488BFF36F8F7047F6
:101D100080F30988704700000C4910B509680C4A27
:101D2000A1FB00010023FEF7CFFA401EB0F1807F37
:101D30000AD24FF0E02460610F216017FFF777FCB3
:101D40000020A0610720206110BD000000000020DD
:101D500040420F0002494FF0805008607047000079
:101D600004ED00E020BF704730BF704770B51449E4
:101D7000144C4EF6015008602068134AC0EB001066
:101D800002EB80004FF48063C0E900130021C0E93A
:101D900002314FF4FA62C0E904120A250576417651
:101DA000012580F82450C0E90A2101634163044AF7
:101DB000064900F015F92068401C206070BD000045
:101DC0005804002018000020A00A0020CD160008AA
:101DD00070B5174A0025174C93685B1E01D2D1607D
:101DE00014E0C3EB031304EB83034EF6015699632F
:101DF000196A0968B14202D083F8245006E093F8CA
:101E00002410032902D1012183F8241090600028B6
:101E10000BDD401EC0EB001004EB800051684163F5
:101E2000032180F82410806B70BD9560D06870BD70
:101E300004000020A00A002000B500F017F80949AE
:101E4000401C8A6890420BD1002807DD064AC0EB8F
:101E5000001002EB8000496840F8081C4FF0FF308A
:101E600000BD000004000020A00A00202DE9F0477A
:101E70003149FF254FF0FF334C68314918460022A5
:101E80004FF0010ADFF8B4900F6850E0C2EB021681
:101E900009EB86010E6B91F824C0A61BBCF1000F64
:101EA00043D00C63D1F828C0BCEB060CC1F828C0A5
:101EB00009D5D1F81480C444C1F828C091F824C0D1
:101EC000BCF1020F1AD091F824C0BCF1030F1AD054
:101ED000D1F82CC0BCF1000F09DDACEB0606CE62D8
:101EE000002E91F824608C4613DC022E09D091F864
:101EF0002460012E07D0032E05D016E081F824A01F
:101F0000E6E781F824A00E7EAE4208D235464B6B40
:101F10000AE056B14FF002068CF8246005E004D1C7
:101F2000496B994201D20B461046521CD2B2BA42BA
:101F3000ACDBBDE8F087000004000020A00A002010
:101F4000180000202DE9F0410546FFF7B9FE0746CD
:101F50000A480B490068B0FBF1F46C430AE000BF8B
:101F6000FFF7AEFE0646BD1B02D5FFF7A5FE0544F2
:101F70003746641B002CF3DCBDE8F0810000002034
:101F800040420F0010B50024FFF792FE064880681B
:101F9000002805DD0549C0EB001001EB80043C3C46
:101FA000FFF788FE204610BD04000020A00A002094
:101FB000094810B58068002807DD084AC0EB00100A
:101FC00002EB8000002100F8181CFFF7C3FEBDE8FB
:101FD0001040FFF7C7BE000004000020A00A002048
:101FE000134423F00703C0E907324FF0807243E93E
:101FF0000212002143F80C1C43F8101C43F8141C77
:1020000043F8181C43F81C1C43F8201C43F8241CFC
:1020100043F8281C43F82C1C43F8301C43F8341CAC
:1020200043F8381C43F83C1D43F8041D8363704794
:102030000146012011DF704710B50446FFF738FE56
:102040000C488068002811DD0B49C0EB001001EB43
:1020500080014FF47A7044434010B4FBF0F041F833
:10206000100C022001F8180CFFF774FEBDE81040B8
:10207000FFF720BE04000020A00A002010B5FFF7E3
:1020800017FE09488068002809DD0849C0EB0010E8
:1020900001EB8000022100F8181CFFF75BFEBDE891
:1020A0001040FFF707BE000004000020A00A002037
:1020B00010B10168142902D04FF0FF3070470021A1
:1020C0000174C068C16821F40051C16000207047EC
:1020D000002070472DE9F04186B0884618B10020F5
:1020E00006B0BDE8F081304D0026287C08B12846B6
:1020F000F6E72D4F01242C7414376C743846802178
:10210000FFF768FD686007F180008021FFF762FD3E
:10211000264FC5E902072648016841F00101016028
:10212000006800F00100059021481430016841F07A
:1021300010010160006801A900F010000590022064
:1021400081E851000720049060021A4C0090694613
:102150002046FEF799F92015009069460296204620
:10216000FEF792F9144C0C202760C4E90186E66062
:10217000C4E90460A6612046E661FEF7A3FF0A22D7
:1021800011462520FEF706FB2520FEF7F5FA20680C
:10219000C16841F02001C1602068C16821F0800160
:1021A000C16014202860A2E7440C00200010014008
:1021B0003038024000000240580D002010B1036882
:1021C000142B02D04FF0FF3070478068FFF70FBD2F
:1021D00010B5041E02D02068142802D04FF0FF3042
:1021E00010BD207C0028FBD06068FFF71FFD617CDC
:1021F0000029F5D000216174E168CA6842F08002CC
:10220000CA6010BD4FF04070E1EE100A7047000048
:102210000000000000000102030406070809000096
:102220000000010203040000482200080000002012
:1022300058000000E8010008A02200085800002013
:10224000A8130000040200080024F40000000000AD
:10225000000000000000000000000000000000007E
:1022600000000000D5200008B1200008BD210008B2
:10227000D1210008D12000083517000809170008EF
:102280008D170008A517000831170008000000008E
:10229000000000000100000010000000000000002D
:04000005080001AD41
:00000001FF
