:020000040800F2
:10000000184F00204D02000827130008A91100080E
:1000100025130008930400083118000800000000B0
:10002000000000000000000000000000C302000803
:1000300095040008000000008D0200086D160008FD
:1000400067020008670200086702000867020008EC
:1000500067020008670200086702000867020008DC
:1000600067020008670200086702000867020008CC
:1000700067020008670200086702000867020008BC
:1000800067020008670200086702000867020008AC
:10009000670200086702000867020008670200089C
:1000A000670200086702000867020008670200088C
:1000B000670200086702000867020008670200087C
:1000C000670200086702000867020008670200086C
:1000D0006702000825180008670200086702000888
:1000E000670200086702000867020008670200084C
:1000F000670200086702000867020008670200083C
:10010000670200086702000867020008670200082B
:10011000670200086702000867020008670200081B
:10012000670200086702000867020008670200080B
:1001300067020008670200086702000867020008FB
:1001400067020008670200086702000867020008EB
:1001500067020008670200086702000867020008DB
:1001600067020008670200086702000867020008CB
:10017000670200086702000867020008000000002C
:1001800067020008670200086702000867020008AB
:10019000670200086702000867020008670200089B
:1001A00000000000000000006702000800F002F8F4
:1001B00000F03CF80AA090E8000C82448344AAF1C5
:1001C0000107DA4501D100F031F8AFF2090EBAE8C3
:1001D0000F0013F0010F18BFFB1A43F0010318477B
:1001E000F830000018310000103A24BF78C878C1F8
:1001F000FAD8520724BF30C830C144BF04680C602D
:10020000704700000023002400250026103A28BF74
:1002100078C1FBD8520728BF30C148BF0B60704778
:100220001FB503F045F81FBD10B510BD00F0F7F87D
:100230001146FFF7F5FF01F045FC00F015F903B496
:10024000FFF7F2FF03BC00F01DF9000009488047EA
:1002500009480047FEE7FEE7FEE7FEE7FEE7FEE7A8
:10026000FEE7FEE7FEE7FEE704480549054A064BC0
:100270007047000009170008AD0100081849002068
:10028000184F0020184B0020184B002001B5114AD0
:10029000904710F1000F13D4EFF309811EF0100FF7
:1002A00008BF21ED108A21E9F04F0B4A9047B0E8D2
:1002B000F04F1EF0100F08BFB0EC108A80F30988D1
:1002C00001BD1EF0040F0CBFEFF30880EFF30980AF
:1002D00001F064B81D290008A928000853EA020C9F
:1002E00000F069802DE9F04B4FF00006002B1FBF96
:1002F000B3FA83F503FA05F424FA05F65E4012BF5B
:100300001643B2FA82F502FA05F4C5F120051EBFC4
:1003100022FA05FC44EA0C04203556EA044C4FEA64
:10032000144418BF641C4FF000084FF000099042BD
:1003300071EB030C39D3002919BFB1FA81F701FA27
:1003400007F6B0FA80F700FA07F6C7F120071EBFDC
:1003500020FA07FC46EA0C062037B6FBF4FCA7EBB4
:100360000507103F07F01F0BCBF120060CFA0BFB23
:100370002CFA06F644BFB3460026202FA4BF5E46E3
:100380004FF0000B5BEA060C08BF4FF0010B19EBB6
:100390000B09ABFB027C48EB0608C01B06FB02CC3A
:1003A0000BFB03CC71EB0C01C1E70B460246414647
:1003B0004846BDE8F08B13B54FF000004FF0000148
:1003C000AFF30080BDE81C4070474FF0000200B55D
:1003D000134694469646203922BFA0E80C50A0E868
:1003E0000C50B1F12001BFF4F7AF090728BFA0E816
:1003F0000C5048BF0CC05DF804EB890028BF40F8E2
:10040000042B08BF704748BF20F8022B11F0804F23
:1004100018BF00F8012B704770477047704775464A
:1004200000F02CF8AE4605006946534620F0070060
:10043000854618B020B5FFF717FFBDE820404FF004
:1004400000064FF000074FF000084FF0000B21F0BE
:100450000701AC46ACE8C009ACE8C009ACE8C0098B
:10046000ACE8C0098D46704710B50446AFF3008074
:100470002046BDE81040FFF7E2BE0000004870478C
:10048000B448002001491820ABBEFEE72600020058
:100490007047FEE7704772B6FEE700002DE9F84F9F
:1004A000DFF8F8A10022012403254FF00F090AF11B
:1004B000040BAAF1040E00BF0B6804FA02F63340E5
:1004C000B34270D10F7907F00307012F01D0022F3B
:1004D00016D187684FEA420805FA08FC27EA0C079C
:1004E000D1F80CC00CFA08FC4CEA070CC0F808C0A4
:1004F0004768B7430E79C6F3001696403E43466000
:100500000E79F643B6070AD0C7684FEA420C05FADF
:100510000CF6B7438E6806FA0CF63E43C6600E79B9
:1005200006F00306022E10D1D60800EB8608D8F894
:10053000206057074FEAD76C09FA0CF7BE430F69E2
:1005400007FA0CF73743C8F8207006684FEA420CE8
:1005500005FA0CF7BE430F7907F0030707FA0CF70B
:10056000374307604E6816F4403F1CD04C4E376846
:1005700047F480473760366822F0030706F4804668
:100580000096484E07EB060CDCF8086897073F0F0B
:1005900009FA07F826EA0806DFF80C81404503D17E
:1005A0004FF0000841E072E0DFF80081404502D1E1
:1005B0004FF0010839E0DFF8F880404502D14FF0F4
:1005C000020832E0DFF8EC80404502D14FF003082A
:1005D0002BE0DFF8E480404502D14FF0040824E02E
:1005E000DFF8D880404502D14FF005081DE0DFF864
:1005F000D080404502D14FF0060816E0DFF8C480F5
:10060000404502D14FF007080FE0DFF8BC804045BD
:1006100002D14FF0080808E0DFF8B080404502D171
:100620004FF0090801E04FF00A0808FA07F848EA15
:100630000608CCF80888DAF800605746D1F804C0FC
:100640009E435FEACC2C00D51E433E60DBF8006081
:100650005F46D1F804C09E435FEA8C2C00D51E4350
:100660003E60DEF800607746D1F804C09E435FEA42
:100670008C3C00D51E433E60084F083F3E68D1F8D1
:1006800004C09E435FEACC3C00D51E433E60521C32
:10069000102AFFF411AFBDE8F88F0000083C0140BC
:1006A0004438024000300140000002400004024093
:1006B00000080240000C02400010024000140240FA
:1006C00000180240001C02400020024000240240AA
:1006D0000AB1816170470904FBE7000001488068A6
:1006E00070470000580000200B4810B5016841F425
:1006F00000710160016841F480610160016841F4AA
:1007000080710160032000F06FF80F2000F006F800
:1007100000F024F8002010BD003C024070B50D4DE3
:1007200004464FF47A712878B1FBF0F00A49096861
:10073000B1FBF0F000F0BCFC48B9102C07D200224D
:100740002146501E00F030F800206C6070BD012082
:1007500070BD000058000020000000200A4808B5C5
:10076000016841F480410160006800F4804000901D
:100770000548001F016841F080510160006800F0E9
:100780008050009008BD000044380240002809DB7A
:1007900000F01F02012191404009800000F1E0209B
:1007A000C0F8001170470000F0B40E4B1B680C46F7
:1007B000C3F30223C3F10705042D00D90425191D35
:1007C000072901D2002300E0DB1E012606FA05F10D
:1007D000491E214099409E40761E16403143F0BC90
:1007E00001F047B80CED00E0064900F00702086888
:1007F0004FF6FF03184040EA0220034A1043086006
:10080000704700000CED00E00000FA052DE9F84FFC
:1008100004460068DFF824A2894F8A4DC1074FF0D3
:1008200001084FF0000603D1810701D4400648D5E6
:10083000CAF86860FFF752FF814605E0FFF74EFFF8
:10084000A0EB090002287DD828680001F6D42078A2
:10085000C1077D4805D06168227A890141EA0271A9
:1008600001602178890711D501686268237B9201B4
:10087000C1F3027142EA036242EA01710160396820
:10088000E26921F01F01521E1143396021784906A7
:1008900008D56168227B890141EA0261227A41EA36
:1008A00002710160CAF86880FFF718FF814605E011
:1008B000FFF714FFA0EB0900022843D828680001C5
:1008C000F6D52068410701D400074ED5CAF87060FC
:1008D000FFF704FF814605E0FFF700FFA0EB0900EA
:1008E00002282FD82868C0438000F5D5207841071A
:1008F000564814D501682269237D9201C1F3027123
:1009000042EA036242EA017101603968226A6FF0CB
:10091000FF0321F4F85103EB0222114339602178DF
:10092000090712D501682269C1F30361920142EA05
:100930000161227E41EA027101603868616A20F437
:10094000403000E051E008433860CAF87080FFF79B
:10095000C5FE074605E000BFFFF7C0FEC01B02282A
:1009600043D82868C0438000F6D42078800653D549
:1009700034484030016841F0805101600068344DD6
:1009800000F080500090286840F480702860FFF7E5
:10099000A5FE074605E000BFFFF7A0FEC01B02282A
:1009A00023D82868C005F7D5274D143D286810F4D2
:1009B000407020D0218D01F4407181421BD0286805
:1009C00020F440712348C0F8008006602960286840
:1009D000C00710D0FFF782FE064641F2883707E0D5
:1009E000FFF77CFE801BB84202D90320BDE8F88FD8
:1009F00028688007F4D5A16A1248C1F301220830A3
:100A0000032A13D0016821F4F81101602868218DB0
:100A1000C1F30B01084328602078C00604D50E49B5
:100A200094F82C00C1F8E0010020DFE702680B4BCE
:100A300022F4F81219400A430260E7E70000474237
:100A40008C38024000380240843802408838024026
:100A500000700040400E474200104742FFFCFF0F6D
:100A60002DE9F0470E46050065D0DFF81481D8F86F
:100A70000000F7B200F00F00B04207D288F8007013
:100A8000D8F8000000F00F00B04254D128683D4C67
:100A9000810712D5400703D5206840F4E05020605C
:100AA0002878000703D5206840F460402060206863
:100AB000A96820F0F000084320602878C0072DD0F6
:100AC000304968680839012812D0022813D0032859
:100AD00011D00968890700292DDA216821F0030166
:100AE00001432160FFF7FAFD814641F2883A0EE0AA
:100AF00009688903EFE709688901ECE7FFF7EEFD74
:100B0000A0EB0901514502D90320BDE8F087206818
:100B1000696800F00C00B0EB810FEFD1D8F800103D
:100B2000404601F00F01B14207D90770006800F09C
:100B30000F00B04201D00120E7E72878400705D533
:100B40002068E96820F4E050084320602878000716
:100B500006D52068296920F4604040EAC100206081
:100B600000F038F82168084AC1F30311515CC8400D
:100B70000649086006480068FFF7D0FD0020C4E77A
:100B8000003C024008380240BA3200080000002051
:100B90005C0000200448054900680968044AC1F364
:100BA0008221515CC8407047000000200838024094
:100BB000CA3200080448054900680968044AC1F3BC
:100BC0004231515CC84070470000002008380240A4
:100BD000CA320008154810B5006810F00C0214481D
:100BE00013D04110042A0FD0082A0ED10F4C241F15
:100BF0002268236802F03F025B0207D52068C0F339
:100C00008810A0FB010106E0084610BD2168C1F371
:100C10008811A1FB00010023FFF760FB2168C1F3ED
:100C20000141491C4900B0FBF1F010BD08380240F9
:100C30000024F4002DE9F84F04006ED02078DFF88E
:100C40004C93C007A9F104054AD009F104000168DA
:100C5000C1F38101012908D00068C0F38100022896
:100C60000AD1D9F80000400206D52868800337D59C
:100C700060680028E1D033E06068B0F5803F10D0B4
:100C8000B0F5A02F286810D020F4803028602868A4
:100C900020F4802028606068A8B1FFF71FFD064699
:100CA0000DE0286840F48030F4E740F480202860AC
:100CB000F7E700BFFFF712FD801B642873D8286890
:100CC0008003F7D50CE0FFF709FD064605E000BFFD
:100CD000FFF704FD801B6428F0D828688003F7D450
:100CE0002078DFF8AC8280074FF0000A3ED5A74895
:100CF000001D016811F00C0F08D00068C0F38100DE
:100D000002280BD1D9F80000400207D428688007D8
:100D100016D5E068012800D112E033E1E068B8B1EF
:100D20000120C8F80000FFF7D9FC064605E000BF27
:100D3000FFF7D4FC801B0228C0D828688007F7D5AD
:100D40002868216920F0F80040EAC10028600DE021
:100D5000C8F800A0FFF7C2FC064604E0FFF7BEFC9F
:100D6000801B02281FD828688007F7D42078000746
:100D700022D5864F87486169703771B101210160C2
:100D8000FFF7ACFC064604E0FFF7A8FC801B022836
:100D900009D838688007F7D50EE0C0F800A0FFF743
:100DA0009DFC064605E082E0FFF798FC801B0228C8
:100DB0007DD838688007F7D42078400768D5DFF8F9
:100DC000CCB100270BF13C0BDBF80000C0000BD4CA
:100DD000DBF8001041F08051CBF80010DBF8000088
:100DE000012700F0805000906B4E3068C00510D491
:100DF000306840F480703060FFF770FC009005E0D0
:100E0000FFF76CFC0099401A022850D83068C005E2
:100E1000F6D55E4EA0686C3601280FD005283068E4
:100E200010D020F001003060306820F00400306005
:100E3000A068B8B1FFF752FC00900FE0306840F0B6
:100E40000100F4E740F004003060F7E7FFF746FCEC
:100E50000099411A41F28830814266D83068800793
:100E6000F4D50EE0FFF73AFC009007E0FFF736FC00
:100E70000099411A41F28830814256D83068800783
:100E8000F4D42FB1DBF8001021F08051CBF8001022
:100E9000A069C8B33D49091D0968C1F38101022950
:100EA0004AD00228504607D0C8F8600000E03CE075
:100EB000FFF714FC04463BE04746C8F86000FFF724
:100EC0000DFC064605E000BFFFF708FC801B02286A
:100ED0002BD828688001F7D4D4E907010843A16A18
:100EE0002E4A490802EB0141626A41EA8211084335
:100EF00094F82C1040EA0161C9F80010012038660E
:100F0000FFF7ECFB044606E03EE000BFFFF7E6FB20
:100F1000001B022809D828688001F7D534E000BFFB
:100F2000FFF7DCFB001B022802D90320BDE8F88F85
:100F300028688001F4D427E00128F7D0D9F8000010
:100F4000E26900F4800191421CD1226A00F03F0165
:100F5000914217D147F6C071626A0140B1EB821F1E
:100F600010D1A26A4FF0FF3300F4403103EB52027C
:100F7000B1EB024F06D194F82C1000F07060B0EB8A
:100F8000016F01D00120D1E70020CFE704380240F3
:100F900000004742800E4742007000400000FFFF03
:100FA00010B5040002D0607F10B106E0012010BD32
:100FB00000202077204600F041F80220607720686A
:100FC000C168C943C90632D5CA214162216853208C
:100FD0004862204600F0A8F920BB20688168164AC4
:100FE000114081602168886862681043D4E9042355
:100FF0001A43104388602168E0680861206801692D
:10100000228941EA02410161204600F0B1F948B964
:1010100021680A6C22F480220A6421680A6CA369A0
:101020001A430A642268FF21516208B110BD0020F2
:101030000121617710BD0000BFFF8FFF10B58CB09C
:10104000044630216846FFF7C0F909492068884204
:101050000CD12020009000010A906846FFF7D6FBD3
:1010600008B1FFF718FA0349012008600CB010BD61
:10107000002800403C0E474270B504460B482168EA
:10108000C860FFF72BFB05464FF47A7607E000BFF8
:10109000FFF724FB401BB04201D9032070BD20683C
:1010A000C0688006F4D5002070BD00005F7F01009D
:1010B00010B5401EB0F1807F01D3012010BD4FF06C
:1010C000E02460610F21601700F0D3FB0020A061D5
:1010D00007202061002010BD70B5040004D094F8F2
:1010E0004100002510B106E0012070BD84F8405099
:1010F000204600F023F8242084F841002068C168CD
:1011000021F40051C160204600F006FB206801690F
:1011100021F4904101612068416921F02A01416177
:101120002068C16841F40051C1606564202084F8E2
:10113000410084F842006563002070BD10B586B0A0
:10114000044614216846FFF740F914492068884294
:1011500021D113480021026842F0100202600068A9
:1011600000F0100005900E481438026842F00102A9
:101170000260006800F0010005904FF4C06000902C
:101180000220CDE901010320039007200490694665
:101190000448FFF783F906B010BD000000100140BD
:1011A0004438024000000240084808B5006800903A
:1011B0000648001F0068009004480830006800904E
:1011C00002480C3000680090FEE700002CED00E0C3
:1011D0002DE9F04186B014216846FFF7F6F8324851
:1011E0000024016841F004010160016801F004017C
:1011F0000591016841F080010160016801F0800102
:101200000591016841F010010160016801F01001D1
:101210000591016841F002010160016801F00201DD
:101220000591016841F008010160016801F00801C1
:101230000591016841F00101016000681B4F00F059
:1012400001000590012207213846FFF741FADFF837
:1012500060804FF40045002229464046FFF738FAE7
:10126000A810CDE90004694638460294FFF716F944
:10127000072000900126CDE90164694638460394B1
:10128000FFF70CF90095CDE90164694640460394E7
:10129000FFF704F9CDE90054694606480294FFF7C8
:1012A000FDF806B0BDE8F081303802400008024089
:1012B00000100240000C02400B4810B509490160C3
:1012C00000217F22C0E90112FF22C0E90321416110
:1012D0008161FFF765FE002803D0BDE81040FFF7ED
:1012E000DAB810BD00280040643800200C4810B562
:1012F0000A4901604FF4E1314160002181600C2214
:10130000C160C0E904128161C161FFF7E5FE0028F8
:1013100003D0BDE81040FFF7BEB810BD001001407B
:1013200084380020FEE7FEE72DE9F041044600681E
:101330000025C168490618D4C16841F08001C16028
:10134000FFF7CCF906464FF47A78042707E000BF90
:10135000FFF7C4F9801B404501D967770125206854
:10136000C068400601D4002DF2D02846BDE8F081C7
:1013700070B5044600680025C16821F08001C16095
:1013800020688068800606D42046FFF775FE10B1FD
:10139000042060770125284670BD0000F8B504469A
:1013A00001F0D2F9B04E10384FF0FF3508287DD249
:1013B000DFE800F0A1551E04CBE3F4F30021204642
:1013C00001F0B4F90168012908D002290AD00329E3
:1013D0006CD14068BDE8F84000F07ABD406800F08C
:1013E00041FD33E081684068BDE8F84000F08CBD05
:1013F0000021204601F09AF9012825D0022827D0A3
:10140000032827D0042851D10121204601F08EF96C
:1014100000F0D6FD060020D00221204601F086F91A
:10142000D8B10221204601F081F931680160022122
:10143000204601F07BF9716841600221204601F0ED
:1014400075F9B16881607AE000F024FE014677E02A
:10145000718875E000F0AEFDF8E7294670E00021E4
:10146000204601F063F90B2820D2DFE800F0FC06EB
:101470000E121A1E272E323537000121204601F0A8
:1014800055F9BDE8F84001F0DFBCBDE8F84001F0D7
:1014900003BD0121204601F049F9BDE8F84001F003
:1014A000ADB8BDE8F84001F00DBC00E0DBE0012183
:1014B000204601F03BF901F0ABFCC7E701212046D3
:1014C00001F034F901F018FCC0E7BDE8F84001F084
:1014D00051BA01F0B9FAB9E7F16831E002212046CA
:1014E00001F024F905460121204601F01FF92946A3
:1014F00001F036FCAAE70021204601F017F9016847
:1015000006291CD2DFE801F01B03080D12178168C1
:10151000406800F0A5FB99E7001D07C800F0CEFB6E
:1015200094E7001D07C800F07BFC8FE7001D07C88B
:1015300000F04CFB8AE7406800F020FB86E70021C2
:101540002046BDE8F84001F0F4B80021204601F043
:10155000EDF80168012907D002290AD003297FF498
:101560007CAF00F055FB71E7001D07C800F0C8FB19
:101570006CE7406800F004FC68E70021204601F0B9
:10158000D5F801680929BFF468AFDFE801F0050864
:101590000D12161A1E2327005FE742E022E0816841
:1015A000406801F067FA51E78168406801F0D8FAB5
:1015B0004CE7406801F0A8FA48E7406801F080FA7B
:1015C00044E7406800F036FF40E78168406800F07B
:1015D00079FF3BE7406800F0BBFF37E7406800F069
:1015E0004DFF33E70021204601F0A0F801680129F2
:1015F00009D002290BD003290ED00429CCD1406890
:1016000000F09CFD22E7406800F066FD1EE7001D2B
:101610000FC800F059FE19E7001D0FC800F0E6FDE5
:1016200014E70021204601F081F80168012909D062
:1016300002290BD0032912D00429ADD1406801F052
:10164000A9FC03E7406801F075FCFFE641690091E1
:10165000027B03698168406801F0BEFCF6E64068E1
:1016600001F0F2FCF2E6F8BD0800002000F018BD21
:1016700030B593B030216846FEF7A7FE14210CA8C0
:10168000FEF7A3FE1E480024016841F0805101606E
:10169000006800F0805011901A48016841F4404100
:1016A00001600068012100F4404011900A20CDE95A
:1016B00000041020CDE90310CDE907400225CDE953
:1016C0000515C020CDE9090504200B906846FFF7F9
:1016D000B1FA08B172B6FEE70F20CDE90C054FF460
:1016E000A050CDE90E404FF48050109003210CA87B
:1016F000FFF7B6F9002801D072B6FEE713B030BD8F
:1017000040380240007000400248016841F4700116
:101710000160704788ED00E070B50446006801691B
:10172000E26821F44051114301612169A068E26936
:1017300008436169114308432168CA6849F20C6390
:101740009A430243CA6020684169A26921F440714A
:101750001143416131492068884202D030498842B2
:1017600002D1FFF727FA01E0FFF714FAE26900233C
:10177000192164253226B2F5004F626828D0A0FBFB
:101780000101930F9200FEF7A9FD0146B0FBF5F0B1
:101790006FF01802504301EB800006EB0010B0FB25
:1017A000F5F000F0F002B1FBF5F002EB0012B1FB36
:1017B000F5F06FF01803584301EB800006EB0010C2
:1017C000B0FBF5F000F00F0021681044886070BD98
:1017D000A0FB010192185B41FEF780FD0146B0FBC2
:1017E000F5F00201B1FBF5F06FF01803584301EB7F
:1017F000800006EBC000B0FBF5F000F0F80002EB53
:101800004002B1FBF5F0584301EB800006EBC0004D
:10181000B0FBF5F000F00700D6E700000010014033
:1018200000140140014800F034B800004047002097
:10183000FEE70907090E002804DB00F1E02080F82C
:101840000014704700F00F0000F1E02080F8141D34
:1018500070470907090E002804DB00F1E02080F83A
:101860000014704700F00F0000F1E02080F8141D14
:1018700070470907090E002804DB00F1E02080F81A
:101880000014704700F00F0000F1E02080F8141DF4
:10189000704738B50446C068016811F0280F08D0B9
:1018A00040688DF8000001226946A06800F0D2FB74
:1018B00038BD617C21B1C16821F04001C16038BDF3
:1018C00001226946606800F0A6FB002804DDE1689B
:1018D0009DF80000486038BDE068C16821F08001D3
:1018E000C16001206074E068C16841F04001E5E733
:1018F00008B5002114A000F0A9F906460120144CF7
:101900008DF800004FF47A750021206800F058FE31
:1019100000226946304600F079FA206800F058FE4F
:10192000284601F08DFA0021206800F049FE0122CE
:101930006946304600F06AFA206800F049FE284601
:1019400001F07EFAE0E700004C4544320000000060
:101950000400002008B5002114A000F077F9064625
:101960000120134C8DF800004FF47A750021206897
:1019700000F026FE01226946304600F047FA206852
:1019800000F026FE284601F05BFA0021206800F0F6
:1019900017FE00226946304600F038FA206800F051
:1019A00017FE284601F04CFAE0E700004C454400E1
:1019B0000400002010B510B10168082902D04FF0D2
:1019C000FF3010BD00210171C18801220248FEF7DD
:1019D0007FFE002010BD000000080240002070477C
:1019E00030B587B0032802D3002007B030BD1449BA
:1019F00001EBC004217909BB0121124B21710022A6
:101A0000627133F81000E080082020600E480368FF
:101A100043F0040303600068019100F004000590A6
:101A2000E088CDE90212094D009069462846FEF78C
:101A300035FDE18801222846FEF74AFE2046D4E71C
:101A40009C480020D2320008303802400008024092
:101A50004FF0FF3130B10268082A03D102790AB190
:101A6000407970470846704710B5011E4FF0FF33AC
:101A700023D00868082820D10879F0B11048002A3E
:101A800003DD4FF001024A710AE003D14FF000027A
:101A90004A710FE04A795AB14FF000024A714AB1D7
:101AA000C9884FF0000200BFFEF712FE002010BDF3
:101AB0000122F3E7C9880122F6E7184610BD0000AD
:101AC00000080240FEF710FEFFF7D2FDFFF780FB93
:101AD000FFF70CFCFFF7F0FB00F082FD00F028F8A8
:101AE00000F03AFE00F0C0FD00F0DAF901F084F8F1
:101AF00000F094F800F022F809A000F09BFC0A49DD
:101B000008600A48002120F0070000F099FD4FF41A
:101B1000FA7000F0EDFD00BF00F01CFEFCE70000D5
:101B20006C65646D74780000040000206408002077
:101B300001490020086070472000002010B50022F5
:101B4000074908A000F0DCF80122054906A000F0D2
:101B5000D7F8BDE810400022054906A000F0D0B833
:101B6000440000204C4544004C4544320000000035
:101B700030000020434F4D310000000070B51222AC
:101B8000C0F313044FF0FF31B2EB105F03D10D48E7
:101B90000068844201DB084670BD0B480A4D00EB2B
:101BA000041000268068803538B1416829B155F8A5
:101BB0002400884745F8246070BD45F82460002063
:101BC00070BD00001C000020CC38002030B412256D
:101BD000C0F313034FF0FF34B5EB105F11D10A4887
:101BE000006883420DDA094850F8230048B1074DD8
:101BF000803D05EB03139B681BB11B690BB130BC27
:101C00001847204630BC70471C0000204C3900208B
:101C100001480068704700001C00002010B5094B07
:101C20000020014603F1800403EB00121170916063
:101C3000D16044F82010401C0828F5DB0248016000
:101C400010BD0000CC3800201C0000201FB5012270
:101C50000092CDE90101684610DF04B010BD00001C
:101C60002DE9F041884605460024124E124F1BE034
:101C7000002006EB04112A5C0B5C934213D112B1D5
:101C8000401C0828F7DB886868B102685AB1C86848
:101C90004146904738B10749803141F8240044F06B
:101CA0009070BDE8F081641C38688442E0DB4FF03E
:101CB000FF30F6E7CC3800201C00002030B412259D
:101CC000C0F313034FF0FF34B5EB105F11D10A4896
:101CD000006883420DDA094850F8230048B1074DE7
:101CE000803D05EB03139B681BB19B680BB130BCB7
:101CF0001847204630BC70471C0000204C3900209B
:101D00002DE9F04792466FF0010C70B369B31A4B9E
:101D10001A68082A03DB4FF0FF30BDE8F087002582
:101D20009946164C08E000BF04EB0516C75C16F890
:101D30000380B8451AD06D1C95424FF00003F3DBC9
:101D40004D4604EB0216C75CF754C75C17B15B1C29
:101D5000072BF8DB04EB02100023C371C0E9021A61
:101D6000521C1846C9F80020D7E703E017B15B1CE6
:101D7000082BDBDB6046D0E71C000020CC380020BD
:101D80002DE9F0434FF0FF3C80B11F4F00211D4C67
:101D90003A6809E0002304EB011600BF16F803803F
:101DA000C55CA84505D0491C9142F3DB6046BDE8FF
:101DB000F08315B15B1C082BF0DB1248B94680306C
:101DC000531E0DE004EB011505F1100696E8C01155
:101DD00085E8C01100EB81056D6840F82150491C71
:101DE0009942EFDB04EB0213002103F8101D00EB16
:101DF00082009960D96040F8041C521E0846C9F858
:101E00000020D4E7CC3800201C0000201FB503239D
:101E100001AC009384E80700684610DF04B010BDF1
:101E200030B41225C0F313034FF0FF34B5EB105F4D
:101E300011D10A48006883420DDA094850F823009E
:101E400048B1074D803D05EB03139B681BB1DB6870
:101E50000BB130BC1847204630BC70471C00002036
:101E60004C39002010B50D49002200BF01EB421390
:101E70001C782CB1521C0A2AF8DB4FF0FF3010BD41
:101E80000021445C5C54445C14B1491C0F29F8DB0C
:101E90000020D87342F0887010BD00006C3900201B
:101EA00030B50020094C0146002204EB4013995440
:101EB000521C082AFBDB002203EB8205521C29611D
:101EC000042AF9DB401C0A28EEDB30BD6C39002007
:101ED00030B5C0F313020A2A13DA0020094B014679
:101EE000012503EB421300BF03EB800214692CB100
:101EF00084F84410146984F824501161401C0428AB
:101F0000F2DB30BD6C39002070B5C0F313040D4610
:101F10004FF0FF360A2C14DA00F0BCFE020010D09D
:101F20000E49002001EB441101EB80031B6953B102
:101F3000401C0428F8DB002D0CDD284600F084FF4F
:101F40000AE0304670BD01EB80000261002082F89B
:101F50004400F0E700F0A0FF002070BD6C390020C5
:101F600070B50C46054600F063FB0F4B0F481A682E
:101F700002EB4201521C40F8215000EB81000C4959
:101F8000446009688160D01702EB507020F00700B0
:101F9000101A18605868082801DA401C5860BDE81B
:101FA000704000F047BB000028000020E046002001
:101FB0000C00002001484068704700002800002005
:101FC000002803DB0B4A5168884201DB0020704780
:101FD000082901DA002100E011680844C11700EB6C
:101FE000517121F00701401A034900EB400001EB59
:101FF0008000704728000020E0460020082908DD06
:102000004FF2F01202800022828042800839C180A3
:10201000704700207047F0B50388A3F57144F03C89
:1020200001D00020F0BD002300F108040EE08588F7
:102030004688B5420CD02D5DCD548588C6886D1C70
:10204000B5FBF6F706FB175585805B1C9342EEDB6C
:102050001846F0BDF0B50388A3F57144F03C01D0FB
:102060000020F0BD002300F108060EE04588C78877
:102070006C1CB4FBF7FC07FB1C448788A4B2A74286
:1020800005D0CF5CAF5544805B1C9342EEDB184615
:10209000F0BD00000148406840087047080000207B
:1020A00010B50C4C6068401C606000F0EDFFE0680B
:1020B00008B900F041FBA068002809DD2088401C19
:1020C00080B22080A188890502D160800020208014
:1020D00010BD00000800002070B5054600F0A8FA09
:1020E00015480024C4EBC40101EB041100EBC1014D
:1020F000097A39B1641C082CF4DB00F09BFA4FF02C
:10210000FF3070BDC4EBC40101EB041100EBC10151
:102110000022AB5C8B54A85C10B1521C072AF8DB80
:102120000020C87101220A72C8600861486100F08D
:1021300081FA44F0A87070BDC03E002010B5152291
:10214000C0F313044FF0FF31B2EB105F01D1082C44
:1021500001DB084610BD00F06BFAC4EBC4010C4A69
:1021600001EB041302EBC3010020087202F83300F4
:10217000C86008610246486101EB8203521C986105
:102180009862042AF8DB00F055FA002010BD000028
:10219000C03E002010B5C26800EB021300223833A5
:1021A00053F8224041F82240521C042AF8DB017BFC
:1021B000491C01F00701C1604169491E416110BD20
:1021C00010B5026900EB02130022383351F82240A7
:1021D00043F82240521C042AF8DB017C491C01F020
:1021E000070101614169491C416110BD2DE9F047BA
:1021F00005461E465FEA0109C0F313004FF0FF37A2
:1022000022D0002A20DD042A1EDC1521B1EB155F47
:102210001AD1082818DAC0EBC00101EB00112948D7
:1022200000EBC104207A78B100F002FAC5F3130084
:10223000C0EBC00202EB0010224A616902EBC00051
:1022400000F1180829BB02E03846BDE8F087AEB3BC
:1022500000F020FD050032D0014604F1280082463E
:1022600000F0B0F800282ADB00F0E4F9002085F83F
:102270004400002E03DD304600F0E6FD01E000F0F2
:10228000E7FC00F0D5F995F8440001280ED060690C
:10229000A0B149462046FFF77DFF404600F0B0F868
:1022A00000F0C8F900F048FA0020CEE72946504671
:1022B00000F098F800F0BEF90120C6E7FFE700F053
:1022C000B9F9C1E7C03E00202DE9F05F05461E4682
:1022D0005FEA010AC0F313004FF000094FF0FF3727
:1022E00030D0002A2EDD042A2CDC1521B1EB155F3D
:1022F00028D1082826DAC0EBC00101EB00113048D4
:1023000000EBC104207AE8B100F092F9C5F31300A4
:10231000C0EBC00202EB0010294A616902EBC00069
:1023200000F1280808290FD251462046FFF748FF40
:10233000404600F065F800F07DF900F0FDF900205E
:10234000BDE8F09F3846FBE70EB300F0A3FC0500A4
:102350001DD0014604F11800834600F033F8002830
:1023600015DB00F067F9002085F84400002E03DD3E
:10237000304600F069FD01E000F06AFC00F058F919
:1023800095F84400012805D0606908280AD300F0B8
:1023900051F9D7E72946584600F024F800F04AF9E9
:1023A0000120CDE751462046FFF70AFF404600F0E6
:1023B00027F800F03FF900F0BFF94846C0E70000F9
:1023C000C03E00205FF0000250F822302BB1521CBA
:1023D000042AF9DB4FF0FF30704740F8221000204C
:1023E0007047000010B500224FEA020350F8224067
:1023F0008C4201D140F82230521C042AF6DB10BD79
:1024000010B5002150F821207AB150F82130002277
:10241000DA6250F8213083F8442050F8214001233B
:1024200084F8243040F8212010BD491C0429E9DB40
:1024300010BD000070B5064600F0FAF80E48002402
:1024400000EB4411097B39B1641C082CF8DB00F067
:10245000F1F84FF0FF3070BD00EB441531462846CF
:1024600000F0BEFB0020A8600120287300F0E2F815
:1024700044F0A07070BD0000C03D002010B51422D3
:10248000C0F313044FF0FF31B2EB105F01D1082C01
:1024900001DB084610BD00F0CBF80949002001EB34
:1024A0004411024608730870C1F8080001EB82036A
:1024B000521C1861042AF9DB00F0BCF8002010BDA2
:1024C000C03D00202DE9F0410E4601461422C0F324
:1024D00013004FF0FF37B2EB115F1ED108281CDA52
:1024E0001A4901EB4015287BB8B100F0A1F800F0C3
:1024F000D1FB04000FD0A86890B1A0420BD0027E9F
:10250000217E8A4200D9017605F11000214600F0B3
:10251000F9FD00280ADA00F08DF83846BDE8F081B0
:10252000AC60207E687300F085F80CE000F082F863
:10253000002084F84400002E03DD304600F084FCC7
:1025400001E000F085FB0020E8E70000C03D00202E
:1025500070B501461422C0F313004FF0FF35B2EB03
:10256000115F10D108280EDA144901EB4014207BCA
:1025700048B100F05DF800F08DFB10B1A168814218
:1025800003D000F057F8284670BD617B017604F156
:10259000100000F0C7FD002148B1A060027E627308
:1025A000C16280F84410012180F8241000E0A1608D
:1025B00000F040F800F0C0F8002070BDC03D0020E1
:1025C0000EB506220092CDE90101684615DF0EBD69
:1025D0000EB50721CDE90010684615DF0EBD0000DD
:1025E0000448016841F47001016003490007086074
:1025F0007047000088ED00E034EF00E010B54FF0C8
:10260000E024A169084A094B1268B2FBF3F2424385
:1026100006E0A369C81A01D5616908441946121A6F
:10262000002AF6DC10BD00000000002040420F0030
:1026300072B6704762B67047EFF3108072B670479B
:1026400080F30988EFF3148011B140F0030001E03A
:1026500040F0020080F31488BFF36F8FBFF36F8FD9
:10266000704780F3108870470B4910B508684FF623
:10267000FF021040094A10430860FF216FF001007B
:10268000FFF7D7F80021481EFFF7D3F80121BDE876
:102690001040881FFFF7CDB80CED00E00000FA05F0
:1026A000021F4FF080731360121F1160121F002170
:1026B0001160121FCB1E1160121F1160121F1160DA
:1026C000121F1160121F1160121F1360121F116080
:1026D000121F1160121F1160121F1160121F116072
:1026E000121F1160121F116040F8441D7047000056
:1026F0000C4910B509680C4AA1FB00010023FDF745
:10270000EDFD401EB0F1807F0AD24FF0E024606101
:102710000F216017FFF79DF80020A06107202061BE
:1027200010BD00000000002040420F0050F82100C2
:10273000704701607047000002494FF08050086008
:102740007047000004ED00E0806910F8020C70474B
:1027500020BF704730BF70472DE9F05F4849494DB1
:102760004EF60158C1F800802868DFF81C9100EB94
:10277000400202EB001209EB82004FF48057C0E9DF
:1027800000170024C0E902744FF4FA66C0E9044659
:102790004FF00A0B80F818B044764FF0010A80F829
:1027A00024A0C0E90A6404630A463B4637494463EF
:1027B00000F016FB28683649401C00EB40022860F8
:1027C00002EB001209EB8200C1F80080C0E900179B
:1027D000C0E90274C0E9044680F818B0447680F875
:1027E00024A0C0E90A6404630A463B4629494463BD
:1027F00000F0F6FA28682849401C00EB40022860E7
:1028000002EB001209EB82007F10C1F80080C0E9E2
:102810000017C0E90274C0E9044609210176447634
:1028200080F824A0C0E90A6404633B461A4A1B49A5
:10283000446300F0D5FA28681949401C00EB4002B7
:10284000286002EB001209EB8200C1F80080C0E9A9
:102850000017C0E90274C0E9044680F818B0447655
:1028600080F824A0C0E90A6404630A463B460D4987
:10287000446300F0B5FA2868401C2860BDE8F09F6A
:102880006408002020000020AC3A00205519000800
:1028900064180020F11800086428002001000608D0
:1028A000643000200100080870B51A4A00251A4C4F
:1028B00093685B1E01D2116117E003EB430606EB40
:1028C000031304EB830399639E6C8E4200D99964D1
:1028D00093F82460032E08D11E6A8E4202D983F831
:1028E000245002E0012183F82410906000280DDDBF
:1028F000401E516800EB400202EB001004EB800028
:102900004163032180F82410806B70BD95601069CD
:1029100070BD000008000020AC3A002010B500F0A7
:1029200039F80B49CB684FF0FF32401C73B98B6804
:1029300098420CD1002809DD00EB400303EB0010A6
:10294000044B496803EB800040F8181C104610BD8A
:1029500008000020AC3A0020054810B5C16829B134
:1029600081680520FFF7FCFA012010BD002010BD92
:102970000800002010B5FFF75FFE0549CA68521C29
:1029800002D0CA68521CCA60BDE81040FFF769BE99
:10299000080000202DE9F05FFF254FF0FF39CA46FF
:1029A0000027DFF89C80274E21E000BF07EB47009F
:1029B00000EB071108EB810494F82400B0B994F8F7
:1029C0003C00012812D14FF0000B84F83CB02046A7
:1029D000A368226A216C00F003FAC4F82CB084F8D2
:1029E00044B06069A062012084F824007F1C306834
:1029F0008742DBDB00241CE004EB440000EB041105
:102A000008EB8107384600F065FA97F824000128A2
:102A100001D003280BD1387EA84202D20546786B3C
:102A200003E004D1786B484501D28146A246641C7C
:102A3000E4B230688442DFDB5046BDE8F09F00001E
:102A4000AC3A00202000002010B5FFF7F5FD01464C
:102A50000748C26812B1C268521EC260C468084604
:102A6000FFF7FFFD0CB9FFF767FE204610BD000021
:102A7000080000202DE9F0410E460746FFF7D8FD7B
:102A80000E48002400EB4411097B41B1641C082C62
:102A9000F8DBFFF7CFFD4FF0FF30BDE8F08100EB32
:102AA00044153946284600F09BF80120AE60287393
:102AB000FFF7C0FD44F09870EFE70000C03C002035
:102AC00010B51322C0F313044FF0FF31B2EB105FC7
:102AD00001D1082C01DB084610BDFFF7A9FD09490B
:102AE000002001EB4411024608730870C1F8080089
:102AF00001EB8203521C1861042AF9DBFFF79AFDEF
:102B0000002010BDC03C002010B51323C0F31301FA
:102B10004FF0FF32B3EB105F15D1082913DA0F48DD
:102B200000EB4114207B70B1FFF782FD04F110002F
:102B300000F0F8FA48B10021C16280F84410012188
:102B400080F8241004E0104610BDA068401CA0606E
:102B5000FFF770FDFFF7F0FD002010BDC03C002026
:102B60002DE9F0410E4601461322C0F313004FF049
:102B7000FF37B2EB115F10D108280EDA174901EBCD
:102B80004014207B48B1FFF753FDA068002807DD03
:102B9000401EA060FFF74EFD1DE03846BDE8F08105
:102BA00000F078F8050006D004F11000294600F086
:102BB000A9FA002802DAFFF73DFDEEE7FFF73AFD3C
:102BC000002085F84400002E03DD304600F03CF97B
:102BD00001E000F03DF80020E0E70000C03C0020EC
:102BE00000228B5C83548B5C13B1521C072AF8DBE8
:102BF0000021C1717047000030B50021124C084619
:102C000004EB4112002310709060107302EB8305F7
:102C10005B1C2861042BF9DB491C0829F0DB0B4CF9
:102C2000002200BF04EB42115FF0000308708860CF
:102C30000873487301EB83055B1C2861042BF9DBE7
:102C4000521C082AEEDB30BDC03C0020C03D0020F5
:102C500010B5FFF7EDFCFFF77FFE98B90B488068D1
:102C600000280FDD00EB400101EB0010084901EBEB
:102C700080004FF0FF3140F8201C022100F8281C92
:102C8000FFF75AFDBDE81040FFF7D4BC0800002054
:102C9000AC3A002010B50024FFF7CAFC0748806852
:102CA000002807DD00EB400101EB0010044901EBB7
:102CB00080044C3CFFF7BEFC204610BD08000020FD
:102CC000AC3A00200A4810B58068002809DD00EB06
:102CD000400202EB0010074A002102EB800000F8DE
:102CE000281CFFF729FDBDE81040FFF731BD0000AB
:102CF00008000020AC3A002070B5041E03DD104827
:102D00000068844202DD4FF0FF3070BD04EB4400E8
:102D10000C4900EB041001EB8005FFF789FC012052
:102D200005F8100C002005F8280CFFF783FC21465D
:102D30000420FFF715F9FFF7FFFC002070BD00002D
:102D400020000020AC3A00208A0801214FF0CD334A
:102D500003E000BF40F82130491C9142FAD370478C
:102D6000F0B5002429B1002803DD1B4A1268904207
:102D700002DD4FF0FF30F0BD00EB400202EB00102F
:102D8000164A4FF0CD3602EB8002012052F8443C47
:102D90009D084C3A06E0176A57F82070B74203D1F5
:102DA000401C641CA842F6D36042D569946C03EBC6
:102DB0008000A54201D92C1B00E00024A04200D8CD
:102DC0002046834200D21846C1E900309268101AAA
:102DD00088600020F0BD000020000020AC3A0020F8
:102DE0002DE9F0410446D0180F4620F0070516469D
:102DF00019461046FFF7A8FFC4E90756276439466D
:102E00002846A564FFF74CFCA063BDE8F0810000F4
:102E1000002803DD08490968884202DD4FF0FF30D1
:102E2000704700EB400101EB0010044901EB80000A
:102E300010F8280C7047000020000020AC3A002059
:102E40000146012011DF704710B50446FFF7F0FB83
:102E5000FFF782FDB8B90E488068002813DD00EB4B
:102E6000400101EB00100B4901EB80014FF47A7037
:102E700044434010B4FBF0F041F8200C022001F86C
:102E8000280CFFF759FCBDE81040FFF7D3BB00004A
:102E900008000020AC3A002010B5FFF7C9FBFFF78F
:102EA0005BFD78B90948806800280BDD00EB400124
:102EB00001EB0010064901EB8000022100F8281CFC
:102EC000FFF73AFCBDE81040FFF7B4BB0800002054
:102ED000AC3A0020164910B54B68016B5A1A90F8AD
:102EE0002410002922D00363002A1FDD03291DD0EE
:102EF000C46A0123002C19DB09DDA4EB0202C262C3
:102F0000002A13DC0022C26280F844300AE0846A9E
:102F1000A21A8262002A09DC446922448262002AE1
:102F200000DC8462022901D180F8243010BD000049
:102F30000800002070B50546FFF77AFB144800240E
:102F4000C4EBC40100EB8101097A39B1641C082C7F
:102F5000F6DBFFF76FFB4FF0FF3070BDC4EBC40131
:102F600000EB81010022AB5C8B54A85C10B1521CB9
:102F7000072AF8DB0020C87101220A724872C87261
:102F800048618861FFF756FB44F0B07070BD0000E7
:102F90008044002010B51622C0F313044FF0FF3117
:102FA000B2EB105F01D1082C01DB084610BDFFF722
:102FB0003FFB084BC4EBC40203EB82010020087204
:102FC0004872C87203F8220048618861FFF732FB3B
:102FD000002010BD804400202DE9F0411F46164618
:102FE0001624DDF81880C0F313024FF0FF33B4EB62
:102FF000105F0DD1082A0BDA1248C2EBC20200EBB7
:103000008204207A20B11FB111B126B1012E02D065
:103010001846BDE8F0814FF47A7041434010B1FB8F
:10302000F0F505B90125FFF703FBA672E560002066
:103030002561E072C4E9057801206072FFF7FAFAB1
:103040000020E6E78044002010B51623C0F31301EA
:103050004FF0FF32B3EB105F11D108290FDA0948A6
:10306000C1EBC10100EB8104207A40B1FFF7E0FA27
:1030700000206072E072FFF7DDFA002010BD1046FC
:1030800010BD00008044002030B500231A4D1946C1
:10309000012400BFC1EBC10005EB8000027A012AC8
:1030A0000ED1427A012A0BD1026912B1521E02617D
:1030B00006D1C472827A012A01D1C2680261012359
:1030C000491C0829E6DB012B15D10C4800680028B3
:1030D00011DD00EB400101EB0010094901EB80001C
:1030E00010F8281C4C38022905D10021C16280F853
:1030F000441080F8244030BD80440020240000208B
:10310000AC3A00205FF0000250F822302BB1521C84
:10311000042AF9DB4FF0FF30704740F822100020FE
:103120007047000010B5FF234FF0FF325FF0000141
:1031300050F8214024B1247E9C4201D823460A46FF
:10314000491C0429F4DB002A01DA002010BD50F8E4
:103150002210002340F82230084610BD10B101684B
:10316000142902D04FF0FF30704700210174C0686D
:10317000C16821F40051C1600020704700207047F1
:103180002DE9F04186B0884618B1002006B0BDE8B0
:10319000F081304D0026287C08B12846F6E72D4FF7
:1031A00001242C7414376C7438468021FEF726FFF6
:1031B000686007F180008021FEF720FF264FC5E9F7
:1031C00002072648016841F001010160006800F033
:1031D0000100059021481430016841F010010160A0
:1031E000006801A900F010000590022081E851005C
:1031F0000720049060021A4C009069462046FDF7B3
:103200004DF920150090694602962046FDF746F9D3
:10321000144C0C202760C4E90186E660C4E9046010
:10322000A6612046E661FDF757FF0A2211462520D8
:10323000FDF7BAFA2520FDF7A9FA2068C16841F028
:103240002001C1602068C16821F08001C1601420A4
:103250002860A2E7404700200010014030380240BB
:10326000000002405448002010B10368142B02D023
:103270004FF0FF3070478068FEF7CDBE10B5041EDA
:1032800002D02068142802D04FF0FF3010BD207CFF
:103290000028FBD06068FEF7DDFE617C0029F5D0D8
:1032A00000216174E168CA6842F08002CA6010BD02
:1032B0004FF04070E1EE100A70470000000000007F
:1032C00000000102030406070809000000000102D3
:1032D0000304010002000400F8320008000000208E
:1032E00064000000E80100085C330008640000206E
:1032F000B44E0000040200080024F400FFFFFFFFAA
:1033000000000000000000000000000000000000BD
:10331000000000000000000000000000FFFFFFFFB1
:103320000000000000000000813100085D3100084D
:10333000693200087D3200087D310008E11900087B
:10334000B5190008511A0008691A0008DD190008AB
:0C33500001000000100000000000000060
:04000005080001AD41
:00000001FF
