:020000040806EC
:1000000000BF00BF01480047FEE7000011000608DE
:1000100000F002F800F02DF80AA090E8000C8244ED
:100020008344AAF10107DA4501D100F022F8AFF2CA
:10003000090EBAE80F0013F0010F18BFFB1A43F0C6
:10004000010318471402000024020000103A24BFE4
:1000500078C878C1FAD8520724BF30C830C144BF2D
:1000600004680C6070471FB500F0F1F81FBD10B5B3
:1000700010BDDFF810D0FFF7F6FF00F0D1F800F068
:1000800009F8000000C0012003B4FFF7F0FF03BC33
:1000900000F00AF810B50446AFF300802046BDE832
:1000A0001040FFF7F1BF704701491820ABBEFEE7D3
:1000B000260002000022054905A000F0B5F803E083
:1000C0004FF47A7000F0BDF8FAE7000008A00120B4
:1000D000424C45440000000070B50446254600200F
:1000E00000F092F80020687170BD2DE9F0410546DE
:1000F0000E4617462C46202E10D0302E10D0B6F5C6
:10010000807F13D1207908B9012000E00020207100
:10011000207900F079F80020BDE8F0812079FBE734
:100120000020207100F070F80020F5E74FF0FF305C
:10013000F2E7000070B504460D461548006840F02F
:100140000400134908601348006820F0300011498A
:1001500008600846006840F010000860081D00684C
:1001600020F00400091D08600A480C30006820F0E7
:10017000300008490C31086000200749087101204F
:1001800048710860002000F03FF8034870BD00008F
:10019000303802400008024000A0012010B503469C
:1001A0001C4609B1012A02DA6FF0030010BD607924
:1001B00010B94FF0FF30F9E7207908700120F5E71A
:1001C0002DE9F04106460F4615463446607918B9C8
:1001D0004FF0FF30BDE8F081002D02DD01202071DD
:1001E00009E015B90020207105E0207908B9012047
:1001F00000E000202071207900F006F8002D01DADF
:100200000120E7E72846E5E720B14FF48021034AC3
:10021000116002E00421014A116070471808024091
:10022000FFF748FF00BFFEE77FB504460D461646C0
:1002300001200090019402950396684614DF04B0F3
:1002400070BD10B504462146012011DF10BD4FF0EE
:100250004070E1EE100A70476802060800A0012015
:100260001C0000004C000608000000000000000018
:1002700035010608D90006089D010608C1010608D7
:04028000EB00060881
:0400000508060011D8
:00000001FF
