:020000040806EC
:1000000000BF00BF01480047FEE7000011000608DE
:1000100000F002F800F03CF80AA090E8000C8244DE
:100020008344AAF10107DA4501D100F031F8AFF2BB
:10003000090EBAE80F0013F0010F18BFFB1A43F0C6
:10004000010318475802000078020000103A24BF4C
:1000500078C878C1FAD8520724BF30C830C144BF2D
:1000600004680C607047000000230024002500266F
:10007000103A28BF78C1FBD8520728BF30C148BF0B
:100080000B6070471FB500F004F91FBD10B510BD1F
:10009000DFF80CD0FFF7F6FF00F0E4F800F008F806
:1000A00000C0012003B4FFF7F1FF03BC00F00AF821
:1000B00010B50446AFF300802046BDE81040FFF7BE
:1000C000F1BF704701491820ABBEFEE726000200D1
:1000D0000A480B4908600B4848600B4888600B4889
:1000E000C8600B48086100220AA000F0BFF803E0D6
:1000F0004FF47A7000F0C7F8FAE7000079010608BB
:1001000008A001201D010608E101060805020608F5
:100110002F010608424C45440000000070B504461B
:100120002546002000F092F80020687170BD2DE98E
:10013000F04105460E4617462C46202E10D0302E94
:1001400010D0B6F5807F13D1207908B9012000E0E6
:1001500000202071207900F079F80020BDE8F081BE
:100160002079FBE70020207100F070F80020F5E70F
:100170004FF0FF30F2E7000070B504460D46154819
:10018000006840F00400134908601348006820F03C
:100190003000114908600846006840F0100008600F
:1001A000081D006820F00400091D08600A480C3092
:1001B000006820F0300008490C3108600020074931
:1001C0000871012048710860002000F03FF80348E2
:1001D00070BD0000303802400008024000A001203D
:1001E00010B503461C4609B1012A02DA6FF003007C
:1001F00010BD607910B94FF0FF30F9E72079087031
:100200000120F5E72DE9F04106460F461546344634
:10021000607918B94FF0FF30BDE8F081002D02DDA4
:100220000120207109E015B90020207105E0207936
:1002300008B9012000E000202071207900F006F8C4
:10024000002D01DA0120E7E72846E5E720B14FF469
:100250008021034A116002E00421014A11607047C5
:1002600018080240FFF734FF00BFFEE77FB50446E1
:100270000D461646012000900194029503966846AB
:1002800014DF04B070BD10B504462146012011DF13
:1002900010BD4FF04070E1EE100A7047BC02060836
:1002A00000A00120080000004C000608C402060857
:1002B00008A00120140000006800060800000000EB
:0402C000000000003A
:0400000508060011D8
:00000001FF
